{
  "contractName": "Controller",
  "abi": [
    {
      "inputs": [],
      "stateMutability": "nonpayable",
      "type": "constructor"
    },
    {
      "anonymous": false,
      "inputs": [
        {
          "indexed": true,
          "internalType": "address",
          "name": "_src",
          "type": "address"
        },
        {
          "indexed": true,
          "internalType": "address",
          "name": "_token",
          "type": "address"
        },
        {
          "indexed": false,
          "internalType": "uint256",
          "name": "_value",
          "type": "uint256"
        }
      ],
      "name": "Airdrop",
      "type": "event"
    },
    {
      "inputs": [
        {
          "internalType": "uint256",
          "name": "",
          "type": "uint256"
        }
      ],
      "name": "airdrops",
      "outputs": [
        {
          "internalType": "bool",
          "name": "active",
          "type": "bool"
        },
        {
          "internalType": "address",
          "name": "airdrop",
          "type": "address"
        },
        {
          "internalType": "bytes",
          "name": "introduction",
          "type": "bytes"
        }
      ],
      "stateMutability": "view",
      "type": "function"
    },
    {
      "inputs": [],
      "name": "governance",
      "outputs": [
        {
          "internalType": "address",
          "name": "",
          "type": "address"
        }
      ],
      "stateMutability": "view",
      "type": "function"
    },
    {
      "inputs": [],
      "name": "numAirdrop",
      "outputs": [
        {
          "internalType": "uint256",
          "name": "",
          "type": "uint256"
        }
      ],
      "stateMutability": "view",
      "type": "function"
    },
    {
      "inputs": [],
      "name": "numProject",
      "outputs": [
        {
          "internalType": "uint256",
          "name": "",
          "type": "uint256"
        }
      ],
      "stateMutability": "view",
      "type": "function"
    },
    {
      "inputs": [
        {
          "internalType": "address",
          "name": "",
          "type": "address"
        }
      ],
      "name": "operators",
      "outputs": [
        {
          "internalType": "bool",
          "name": "",
          "type": "bool"
        }
      ],
      "stateMutability": "view",
      "type": "function"
    },
    {
      "inputs": [
        {
          "internalType": "uint256",
          "name": "",
          "type": "uint256"
        }
      ],
      "name": "projectInfos",
      "outputs": [
        {
          "internalType": "address",
          "name": "initiator",
          "type": "address"
        },
        {
          "internalType": "bytes",
          "name": "project",
          "type": "bytes"
        },
        {
          "internalType": "uint256",
          "name": "totalNum",
          "type": "uint256"
        },
        {
          "internalType": "uint256",
          "name": "starTime",
          "type": "uint256"
        },
        {
          "internalType": "uint256",
          "name": "option",
          "type": "uint256"
        }
      ],
      "stateMutability": "view",
      "type": "function"
    },
    {
      "inputs": [
        {
          "internalType": "address",
          "name": "_token",
          "type": "address"
        },
        {
          "internalType": "uint256",
          "name": "_totalNum",
          "type": "uint256"
        },
        {
          "internalType": "uint256",
          "name": "_value",
          "type": "uint256"
        },
        {
          "internalType": "uint256",
          "name": "_option",
          "type": "uint256"
        },
        {
          "internalType": "bytes",
          "name": "_project",
          "type": "bytes"
        }
      ],
      "name": "airdrop",
      "outputs": [],
      "stateMutability": "payable",
      "type": "function"
    },
    {
      "inputs": [
        {
          "internalType": "address",
          "name": "_airdrop",
          "type": "address"
        },
        {
          "internalType": "bytes",
          "name": "_introduction",
          "type": "bytes"
        }
      ],
      "name": "addAirdrop",
      "outputs": [],
      "stateMutability": "nonpayable",
      "type": "function"
    },
    {
      "inputs": [
        {
          "internalType": "uint256",
          "name": "_index",
          "type": "uint256"
        },
        {
          "internalType": "bool",
          "name": "_active",
          "type": "bool"
        },
        {
          "internalType": "address",
          "name": "_airdrop",
          "type": "address"
        },
        {
          "internalType": "bytes",
          "name": "_introduction",
          "type": "bytes"
        }
      ],
      "name": "setAirdrop",
      "outputs": [],
      "stateMutability": "nonpayable",
      "type": "function"
    },
    {
      "inputs": [
        {
          "internalType": "address",
          "name": "_governance",
          "type": "address"
        }
      ],
      "name": "setGovernance",
      "outputs": [],
      "stateMutability": "nonpayable",
      "type": "function"
    },
    {
      "inputs": [
        {
          "internalType": "address",
          "name": "_operator",
          "type": "address"
        }
      ],
      "name": "addOperator",
      "outputs": [],
      "stateMutability": "nonpayable",
      "type": "function"
    },
    {
      "inputs": [
        {
          "internalType": "address",
          "name": "_operator",
          "type": "address"
        }
      ],
      "name": "removeOperator",
      "outputs": [],
      "stateMutability": "nonpayable",
      "type": "function"
    },
    {
      "inputs": [],
      "name": "clearAssets",
      "outputs": [],
      "stateMutability": "nonpayable",
      "type": "function"
    },
    {
      "inputs": [
        {
          "internalType": "address",
          "name": "_token",
          "type": "address"
        }
      ],
      "name": "clearToken",
      "outputs": [],
      "stateMutability": "nonpayable",
      "type": "function"
    },
    {
      "inputs": [
        {
          "internalType": "bool",
          "name": "_open",
          "type": "bool"
        },
        {
          "internalType": "uint256",
          "name": "_fee",
          "type": "uint256"
        }
      ],
      "name": "setFeeInfo",
      "outputs": [],
      "stateMutability": "nonpayable",
      "type": "function"
    },
    {
      "inputs": [],
      "name": "feeInfo",
      "outputs": [
        {
          "internalType": "bool",
          "name": "",
          "type": "bool"
        },
        {
          "internalType": "uint256",
          "name": "",
          "type": "uint256"
        },
        {
          "internalType": "uint256",
          "name": "",
          "type": "uint256"
        }
      ],
      "stateMutability": "view",
      "type": "function"
    }
  ],
  "bytecode": "0x608060405260008060146101000a81548160ff02191690831515021790555034801561002a57600080fd5b50336000806101000a81548173ffffffffffffffffffffffffffffffffffffffff021916908373ffffffffffffffffffffffffffffffffffffffff16021790555061203f8061007a6000396000f3fe6080604052600436106100f35760003560e01c806360db50821161008a578063ab033ea911610059578063ab033ea914610699578063ac8a584a146106ea578063ae71fa731461073b578063c10ad8ac14610821576100f3565b806360db50821461050857806371fb04e5146105e25780639870d7fe1461060d578063995b5aae1461065e576100f3565b8063333d2da3116100c6578063333d2da31461043e578063453de0bb1461048557806348be24a31461049c5780635aa6e675146104c7576100f3565b806311844d13146100f857806313e7c9d8146101f15780631df244b9146102585780632656fffd14610356575b600080fd5b6101ef600480360360a081101561010e57600080fd5b81019080803573ffffffffffffffffffffffffffffffffffffffff1690602001909291908035906020019092919080359060200190929190803590602001909291908035906020019064010000000081111561016957600080fd5b82018360208201111561017b57600080fd5b8035906020019184600183028401116401000000008311171561019d57600080fd5b91908080601f016020809104026020016040519081016040528093929190818152602001838380828437600081840152601f19601f820116905080830192505050505050509192919290505050610872565b005b3480156101fd57600080fd5b506102406004803603602081101561021457600080fd5b81019080803573ffffffffffffffffffffffffffffffffffffffff169060200190929190505050610cea565b60405180821515815260200191505060405180910390f35b34801561026457600080fd5b506103546004803603608081101561027b57600080fd5b8101908080359060200190929190803515159060200190929190803573ffffffffffffffffffffffffffffffffffffffff169060200190929190803590602001906401000000008111156102ce57600080fd5b8201836020820111156102e057600080fd5b8035906020019184600183028401116401000000008311171561030257600080fd5b91908080601f016020809104026020016040519081016040528093929190818152602001838380828437600081840152601f19601f820116905080830192505050505050509192919290505050610d0a565b005b34801561036257600080fd5b5061043c6004803603604081101561037957600080fd5b81019080803573ffffffffffffffffffffffffffffffffffffffff169060200190929190803590602001906401000000008111156103b657600080fd5b8201836020820111156103c857600080fd5b803590602001918460018302840111640100000000831117156103ea57600080fd5b91908080601f016020809104026020016040519081016040528093929190818152602001838380828437600081840152601f19601f820116905080830192505050505050509192919290505050610e9e565b005b34801561044a57600080fd5b506104836004803603604081101561046157600080fd5b8101908080351515906020019092919080359060200190929190505050611045565b005b34801561049157600080fd5b5061049a61112b565b005b3480156104a857600080fd5b506104b161125b565b6040518082815260200191505060405180910390f35b3480156104d357600080fd5b506104dc611261565b604051808273ffffffffffffffffffffffffffffffffffffffff16815260200191505060405180910390f35b34801561051457600080fd5b506105416004803603602081101561052b57600080fd5b8101908080359060200190929190505050611285565b6040518084151581526020018373ffffffffffffffffffffffffffffffffffffffff16815260200180602001828103825283818151815260200191508051906020019080838360005b838110156105a557808201518184015260208101905061058a565b50505050905090810190601f1680156105d25780820380516001836020036101000a031916815260200191505b5094505050505060405180910390f35b3480156105ee57600080fd5b506105f7611374565b6040518082815260200191505060405180910390f35b34801561061957600080fd5b5061065c6004803603602081101561063057600080fd5b81019080803573ffffffffffffffffffffffffffffffffffffffff16906020019092919050505061137a565b005b34801561066a57600080fd5b50610673611496565b604051808415158152602001838152602001828152602001935050505060405180910390f35b3480156106a557600080fd5b506106e8600480360360208110156106bc57600080fd5b81019080803573ffffffffffffffffffffffffffffffffffffffff1690602001909291905050506114bb565b005b3480156106f657600080fd5b506107396004803603602081101561070d57600080fd5b81019080803573ffffffffffffffffffffffffffffffffffffffff1690602001909291905050506115bf565b005b34801561074757600080fd5b506107746004803603602081101561075e57600080fd5b81019080803590602001909291905050506116db565b604051808673ffffffffffffffffffffffffffffffffffffffff16815260200180602001858152602001848152602001838152602001828103825286818151815260200191508051906020019080838360005b838110156107e25780820151818401526020810190506107c7565b50505050905090810190601f16801561080f5780820380516001836020036101000a031916815260200191505b50965050505050505060405180910390f35b34801561082d57600080fd5b506108706004803603602081101561084457600080fd5b81019080803573ffffffffffffffffffffffffffffffffffffffff1690602001909291905050506117d6565b005b600060149054906101000a900460ff16156109e2576001543410156108ff576040517f08c379a00000000000000000000000000000000000000000000000000000000081526004018080602001828103825260108152602001807f696e73756666696369656e74206665650000000000000000000000000000000081525060200191505060405180910390fd5b60008054906101000a900473ffffffffffffffffffffffffffffffffffffffff1673ffffffffffffffffffffffffffffffffffffffff166108fc349081150290604051600060405180830381858888f19350505050158015610965573d6000803e3d6000fd5b5060008590506109e03360008054906101000a900473ffffffffffffffffffffffffffffffffffffffff166109b96127106109ab6002548b61199290919063ffffffff16565b611a1890919063ffffffff16565b8473ffffffffffffffffffffffffffffffffffffffff16611a62909392919063ffffffff16565b505b6007600083815260200190815260200160002060000160009054906101000a900460ff16610a78576040517f08c379a00000000000000000000000000000000000000000000000000000000081526004018080602001828103825260078152602001807f216163746976650000000000000000000000000000000000000000000000000081525060200191505060405180910390fd5b60008584604051602001808373ffffffffffffffffffffffffffffffffffffffff168152602001828152602001925050506040516020818303038152906040528051906020012090506007600084815260200190815260200160002060000160019054906101000a900473ffffffffffffffffffffffffffffffffffffffff1673ffffffffffffffffffffffffffffffffffffffff1662961c5d87836040518363ffffffff1660e01b8152600401808373ffffffffffffffffffffffffffffffffffffffff16815260200182815260200192505050600060405180830381600087803b158015610b6757600080fd5b505af1158015610b7b573d6000803e3d6000fd5b5050505060056040518060a001604052803373ffffffffffffffffffffffffffffffffffffffff16815260200184815260200187815260200142815260200185815250908060018154018082558091505060019003906000526020600020906005020160009091909190915060008201518160000160006101000a81548173ffffffffffffffffffffffffffffffffffffffff021916908373ffffffffffffffffffffffffffffffffffffffff1602179055506020820151816001019080519060200190610c4a929190611f21565b5060408201518160020155606082015181600301556080820151816004015550506004600081548092919060010191905055508573ffffffffffffffffffffffffffffffffffffffff163373ffffffffffffffffffffffffffffffffffffffff167f8986d2aad709d6d52ca7673e78442a1ac939dc024b80334c27ca759e7658a028866040518082815260200191505060405180910390a3505050505050565b60066020528060005260406000206000915054906101000a900460ff1681565b60008054906101000a900473ffffffffffffffffffffffffffffffffffffffff1673ffffffffffffffffffffffffffffffffffffffff163373ffffffffffffffffffffffffffffffffffffffff1614610dcb576040517f08c379a000000000000000000000000000000000000000000000000000000000815260040180806020018281038252600b8152602001807f21676f7665726e616e636500000000000000000000000000000000000000000081525060200191505060405180910390fd5b604051806060016040528084151581526020018373ffffffffffffffffffffffffffffffffffffffff168152602001828152506007600086815260200190815260200160002060008201518160000160006101000a81548160ff02191690831515021790555060208201518160000160016101000a81548173ffffffffffffffffffffffffffffffffffffffff021916908373ffffffffffffffffffffffffffffffffffffffff1602179055506040820151816001019080519060200190610e94929190611f21565b5090505050505050565b60008054906101000a900473ffffffffffffffffffffffffffffffffffffffff1673ffffffffffffffffffffffffffffffffffffffff163373ffffffffffffffffffffffffffffffffffffffff1614610f5f576040517f08c379a000000000000000000000000000000000000000000000000000000000815260040180806020018281038252600b8152602001807f21676f7665726e616e636500000000000000000000000000000000000000000081525060200191505060405180910390fd5b60405180606001604052806001151581526020018373ffffffffffffffffffffffffffffffffffffffff1681526020018281525060076000600354815260200190815260200160002060008201518160000160006101000a81548160ff02191690831515021790555060208201518160000160016101000a81548173ffffffffffffffffffffffffffffffffffffffff021916908373ffffffffffffffffffffffffffffffffffffffff160217905550604082015181600101908051906020019061102b929190611f21565b509050506003600081548092919060010191905055505050565b60008054906101000a900473ffffffffffffffffffffffffffffffffffffffff1673ffffffffffffffffffffffffffffffffffffffff163373ffffffffffffffffffffffffffffffffffffffff1614611106576040517f08c379a000000000000000000000000000000000000000000000000000000000815260040180806020018281038252600b8152602001807f21676f7665726e616e636500000000000000000000000000000000000000000081525060200191505060405180910390fd5b81600060146101000a81548160ff021916908315150217905550806001819055505050565b60008054906101000a900473ffffffffffffffffffffffffffffffffffffffff1673ffffffffffffffffffffffffffffffffffffffff163373ffffffffffffffffffffffffffffffffffffffff16146111ec576040517f08c379a000000000000000000000000000000000000000000000000000000000815260040180806020018281038252600b8152602001807f21676f7665726e616e636500000000000000000000000000000000000000000081525060200191505060405180910390fd5b600047905060008054906101000a900473ffffffffffffffffffffffffffffffffffffffff1673ffffffffffffffffffffffffffffffffffffffff166108fc829081150290604051600060405180830381858888f19350505050158015611257573d6000803e3d6000fd5b5050565b60035481565b60008054906101000a900473ffffffffffffffffffffffffffffffffffffffff1681565b60076020528060005260406000206000915090508060000160009054906101000a900460ff16908060000160019054906101000a900473ffffffffffffffffffffffffffffffffffffffff1690806001018054600181600116156101000203166002900480601f01602080910402602001604051908101604052809291908181526020018280546001816001161561010002031660029004801561136a5780601f1061133f5761010080835404028352916020019161136a565b820191906000526020600020905b81548152906001019060200180831161134d57829003601f168201915b5050505050905083565b60045481565b60008054906101000a900473ffffffffffffffffffffffffffffffffffffffff1673ffffffffffffffffffffffffffffffffffffffff163373ffffffffffffffffffffffffffffffffffffffff161461143b576040517f08c379a000000000000000000000000000000000000000000000000000000000815260040180806020018281038252600b8152602001807f21676f7665726e616e636500000000000000000000000000000000000000000081525060200191505060405180910390fd5b6001600660008373ffffffffffffffffffffffffffffffffffffffff1673ffffffffffffffffffffffffffffffffffffffff16815260200190815260200160002060006101000a81548160ff02191690831515021790555050565b60008060008060149054906101000a900460ff16600154600254925092509250909192565b60008054906101000a900473ffffffffffffffffffffffffffffffffffffffff1673ffffffffffffffffffffffffffffffffffffffff163373ffffffffffffffffffffffffffffffffffffffff161461157c576040517f08c379a000000000000000000000000000000000000000000000000000000000815260040180806020018281038252600b8152602001807f21676f7665726e616e636500000000000000000000000000000000000000000081525060200191505060405180910390fd5b806000806101000a81548173ffffffffffffffffffffffffffffffffffffffff021916908373ffffffffffffffffffffffffffffffffffffffff16021790555050565b60008054906101000a900473ffffffffffffffffffffffffffffffffffffffff1673ffffffffffffffffffffffffffffffffffffffff163373ffffffffffffffffffffffffffffffffffffffff1614611680576040517f08c379a000000000000000000000000000000000000000000000000000000000815260040180806020018281038252600b8152602001807f21676f7665726e616e636500000000000000000000000000000000000000000081525060200191505060405180910390fd5b6000600660008373ffffffffffffffffffffffffffffffffffffffff1673ffffffffffffffffffffffffffffffffffffffff16815260200190815260200160002060006101000a81548160ff02191690831515021790555050565b600581815481106116e857fe5b90600052602060002090600502016000915090508060000160009054906101000a900473ffffffffffffffffffffffffffffffffffffffff1690806001018054600181600116156101000203166002900480601f0160208091040260200160405190810160405280929190818152602001828054600181600116156101000203166002900480156117ba5780601f1061178f576101008083540402835291602001916117ba565b820191906000526020600020905b81548152906001019060200180831161179d57829003601f168201915b5050505050908060020154908060030154908060040154905085565b60008054906101000a900473ffffffffffffffffffffffffffffffffffffffff1673ffffffffffffffffffffffffffffffffffffffff163373ffffffffffffffffffffffffffffffffffffffff1614611897576040517f08c379a000000000000000000000000000000000000000000000000000000000815260040180806020018281038252600b8152602001807f21676f7665726e616e636500000000000000000000000000000000000000000081525060200191505060405180910390fd5b600081905060008173ffffffffffffffffffffffffffffffffffffffff166370a08231306040518263ffffffff1660e01b8152600401808273ffffffffffffffffffffffffffffffffffffffff16815260200191505060206040518083038186803b15801561190557600080fd5b505afa158015611919573d6000803e3d6000fd5b505050506040513d602081101561192f57600080fd5b8101908080519060200190929190505050905061198d60008054906101000a900473ffffffffffffffffffffffffffffffffffffffff16828473ffffffffffffffffffffffffffffffffffffffff16611b239092919063ffffffff16565b505050565b6000808314156119a55760009050611a12565b60008284029050828482816119b657fe5b0414611a0d576040517f08c379a0000000000000000000000000000000000000000000000000000000008152600401808060200182810382526021815260200180611fbf6021913960400191505060405180910390fd5b809150505b92915050565b6000611a5a83836040518060400160405280601a81526020017f536166654d6174683a206469766973696f6e206279207a65726f000000000000815250611bc5565b905092915050565b611b1d846323b872dd60e01b858585604051602401808473ffffffffffffffffffffffffffffffffffffffff1681526020018373ffffffffffffffffffffffffffffffffffffffff1681526020018281526020019350505050604051602081830303815290604052907bffffffffffffffffffffffffffffffffffffffffffffffffffffffff19166020820180517bffffffffffffffffffffffffffffffffffffffffffffffffffffffff8381831617835250505050611c8b565b50505050565b611bc08363a9059cbb60e01b8484604051602401808373ffffffffffffffffffffffffffffffffffffffff16815260200182815260200192505050604051602081830303815290604052907bffffffffffffffffffffffffffffffffffffffffffffffffffffffff19166020820180517bffffffffffffffffffffffffffffffffffffffffffffffffffffffff8381831617835250505050611c8b565b505050565b60008083118290611c71576040517f08c379a00000000000000000000000000000000000000000000000000000000081526004018080602001828103825283818151815260200191508051906020019080838360005b83811015611c36578082015181840152602081019050611c1b565b50505050905090810190601f168015611c635780820380516001836020036101000a031916815260200191505b509250505060405180910390fd5b506000838581611c7d57fe5b049050809150509392505050565b611caa8273ffffffffffffffffffffffffffffffffffffffff16611ed6565b611d1c576040517f08c379a000000000000000000000000000000000000000000000000000000000815260040180806020018281038252601f8152602001807f5361666545524332303a2063616c6c20746f206e6f6e2d636f6e74726163740081525060200191505060405180910390fd5b600060608373ffffffffffffffffffffffffffffffffffffffff16836040518082805190602001908083835b60208310611d6b5780518252602082019150602081019050602083039250611d48565b6001836020036101000a0380198251168184511680821785525050505050509050019150506000604051808303816000865af19150503d8060008114611dcd576040519150601f19603f3d011682016040523d82523d6000602084013e611dd2565b606091505b509150915081611e4a576040517f08c379a00000000000000000000000000000000000000000000000000000000081526004018080602001828103825260208152602001807f5361666545524332303a206c6f772d6c6576656c2063616c6c206661696c656481525060200191505060405180910390fd5b600081511115611ed057808060200190516020811015611e6957600080fd5b8101908080519060200190929190505050611ecf576040517f08c379a000000000000000000000000000000000000000000000000000000000815260040180806020018281038252602a815260200180611fe0602a913960400191505060405180910390fd5b5b50505050565b60008060007fc5d2460186f7233c927e7db2dcc703c0e500b653ca82273b7bfad8045d85a47060001b9050833f91506000801b8214158015611f185750808214155b92505050919050565b828054600181600116156101000203166002900490600052602060002090601f016020900481019282601f10611f6257805160ff1916838001178555611f90565b82800160010185558215611f90579182015b82811115611f8f578251825591602001919060010190611f74565b5b509050611f9d9190611fa1565b5090565b5b80821115611fba576000816000905550600101611fa2565b509056fe536166654d6174683a206d756c7469706c69636174696f6e206f766572666c6f775361666545524332303a204552433230206f7065726174696f6e20646964206e6f742073756363656564a26469706673582212201d9423c16997e36d54c2211f735c8bff4e027a230ef3236bbf209b7441ebe0da64736f6c634300060c0033",
  "immutableReferences": {},
  "source": "// SPDX-License-Identifier: MIT\r\npragma solidity ^0.6.12;\r\n\r\nimport \"../libraries/SafeERC20.sol\";\r\n\r\ninterface IBaseAirdrop {\r\n    function setReceiveInfo(address _token, bytes32 _receiveInfo) external;\r\n}\r\n\r\ncontract Controller {\r\n\r\n    using SafeERC20 for IERC20;\r\n    using SafeMath for uint;\r\n\r\n    // \r\n    address public governance;\r\n\r\n    // \r\n    bool private open = false;\r\n\r\n    // HT\r\n    uint private fee;\r\n\r\n    // token 10000\r\n    uint private tokenPct;\r\n\r\n    // \r\n    uint public numAirdrop;\r\n\r\n    uint public numProject;\r\n\r\n    // \r\n    ProjectInfo[] public projectInfos;\r\n\r\n    // \r\n    mapping (address => bool) public operators;\r\n\r\n    // \r\n    mapping(uint => AirdropType) public airdrops;\r\n\r\n    event Airdrop(address indexed _src, address indexed _token, uint _value);\r\n\r\n    struct AirdropType {\r\n        // \r\n        bool active;\r\n\r\n        // \r\n        address airdrop;\r\n\r\n        // \r\n        bytes introduction;\r\n    }\r\n\r\n    struct ProjectInfo {\r\n        // \r\n        address initiator;\r\n\r\n        // hash\r\n        bytes project;\r\n\r\n        // \r\n        uint totalNum;\r\n\r\n        // \r\n        uint starTime;\r\n\r\n        // \r\n        uint option;\r\n    }\r\n\r\n    constructor () public {\r\n      governance = msg.sender;\r\n    }\r\n\r\n    function airdrop(address _token, uint _totalNum, uint _value, uint _option, bytes memory _project) external payable {\r\n        if(open) {\r\n            require(msg.value >= fee, \"insufficient fee\");\r\n            payable(governance).transfer(msg.value);\r\n            IERC20 token = IERC20(_token);\r\n            token.safeTransferFrom(msg.sender, governance, _totalNum.mul(tokenPct).div(10000));\r\n        }\r\n        require(airdrops[_option].active, \"!active\");\r\n        bytes32 receiveInfo = keccak256(abi.encode(_token, _value));\r\n        IBaseAirdrop(airdrops[_option].airdrop).setReceiveInfo(_token, receiveInfo);\r\n        projectInfos.push(ProjectInfo(msg.sender, _project, _totalNum, block.timestamp, _option));\r\n        numProject++;\r\n        emit Airdrop(msg.sender, _token, _value);\r\n    }\r\n\r\n    function addAirdrop(address _airdrop, bytes memory _introduction) external {\r\n      require(msg.sender == governance, \"!governance\");\r\n      airdrops[numAirdrop] = AirdropType(true, _airdrop, _introduction);\r\n      numAirdrop++;\r\n    }\r\n\r\n    function setAirdrop(uint _index, bool _active, address _airdrop, bytes memory _introduction) external {\r\n      require(msg.sender == governance, \"!governance\");\r\n      airdrops[_index] = AirdropType(_active, _airdrop, _introduction);\r\n    }\r\n\r\n    function setGovernance(address _governance) external {\r\n      require(msg.sender == governance, \"!governance\"); \r\n      governance = _governance;\r\n    }\r\n\r\n    function addOperator(address _operator) external {\r\n      require(msg.sender == governance, \"!governance\");\r\n      operators[_operator] = true;\r\n    }\r\n  \r\n    function removeOperator(address _operator) external {\r\n        require(msg.sender == governance, \"!governance\");\r\n        operators[_operator] = false;\r\n    }\r\n\r\n    function clearAssets() external {\r\n        require(msg.sender == governance, \"!governance\");\r\n        uint balance = address(this).balance;\r\n        payable(governance).transfer(balance);\r\n    }\r\n\r\n    function clearToken(address _token) external {\r\n        require(msg.sender == governance, \"!governance\");\r\n        IERC20 token = IERC20(_token);\r\n        uint balance = token.balanceOf(address(this));\r\n        token.safeTransfer(governance, balance);\r\n    }\r\n\r\n    function setFeeInfo(bool _open, uint _fee) external {\r\n        require(msg.sender == governance, \"!governance\");\r\n        open = _open;\r\n        fee = _fee;\r\n    }\r\n\r\n    // \r\n    function feeInfo() external view returns(bool, uint, uint) {\r\n        return(open, fee, tokenPct);\r\n    }\r\n}",
  "sourcePath": "D:/mzdata/DeFiPlus/contracts/airdrop/Controller.sol",
  "compiler": {
    "name": "solc",
    "version": "0.6.12+commit.27d51765.Emscripten.clang"
  },
  "schemaVersion": "3.3.3",
  "updatedAt": "2021-03-04T09:47:38.201Z",
  "devdoc": {
    "kind": "dev",
    "methods": {},
    "version": 1
  },
  "userdoc": {
    "kind": "user",
    "methods": {},
    "version": 1
  }
}