{
  "contractName": "FirstAllocation",
  "abi": [
    {
      "inputs": [
        {
          "internalType": "contract IMasterChef",
          "name": "_masterChef",
          "type": "address"
        }
      ],
      "stateMutability": "nonpayable",
      "type": "constructor"
    },
    {
      "inputs": [
        {
          "internalType": "bytes32",
          "name": "",
          "type": "bytes32"
        }
      ],
      "name": "poolIndex",
      "outputs": [
        {
          "internalType": "uint256",
          "name": "",
          "type": "uint256"
        }
      ],
      "stateMutability": "view",
      "type": "function"
    },
    {
      "inputs": [
        {
          "internalType": "uint256",
          "name": "",
          "type": "uint256"
        }
      ],
      "name": "poolInfo",
      "outputs": [
        {
          "internalType": "contract IERC20",
          "name": "lpToken",
          "type": "address"
        },
        {
          "internalType": "contract IERC20",
          "name": "rewardToken",
          "type": "address"
        },
        {
          "internalType": "uint256",
          "name": "rewardAmount",
          "type": "uint256"
        },
        {
          "internalType": "uint256",
          "name": "startTime",
          "type": "uint256"
        },
        {
          "internalType": "uint256",
          "name": "duration",
          "type": "uint256"
        },
        {
          "internalType": "uint256",
          "name": "periodFinish",
          "type": "uint256"
        },
        {
          "internalType": "uint256",
          "name": "rewardRate",
          "type": "uint256"
        },
        {
          "internalType": "uint256",
          "name": "lastUpdateTime",
          "type": "uint256"
        },
        {
          "internalType": "uint256",
          "name": "rewardPerTokenStored",
          "type": "uint256"
        },
        {
          "internalType": "uint256",
          "name": "totalAmount",
          "type": "uint256"
        }
      ],
      "stateMutability": "view",
      "type": "function"
    },
    {
      "inputs": [],
      "name": "poolLength",
      "outputs": [
        {
          "internalType": "uint256",
          "name": "",
          "type": "uint256"
        }
      ],
      "stateMutability": "view",
      "type": "function"
    },
    {
      "inputs": [
        {
          "internalType": "contract IERC20",
          "name": "_lpToken",
          "type": "address"
        },
        {
          "internalType": "contract IERC20",
          "name": "_rewardToken",
          "type": "address"
        },
        {
          "internalType": "uint256",
          "name": "_rewardAmount",
          "type": "uint256"
        },
        {
          "internalType": "uint256",
          "name": "_startTime",
          "type": "uint256"
        },
        {
          "internalType": "uint256",
          "name": "_duration",
          "type": "uint256"
        }
      ],
      "name": "add",
      "outputs": [],
      "stateMutability": "nonpayable",
      "type": "function"
    },
    {
      "inputs": [
        {
          "internalType": "uint256",
          "name": "_amount",
          "type": "uint256"
        },
        {
          "internalType": "bytes32",
          "name": "_hash",
          "type": "bytes32"
        }
      ],
      "name": "stake",
      "outputs": [],
      "stateMutability": "nonpayable",
      "type": "function"
    },
    {
      "inputs": [
        {
          "internalType": "bytes32",
          "name": "_hash",
          "type": "bytes32"
        }
      ],
      "name": "exit",
      "outputs": [],
      "stateMutability": "nonpayable",
      "type": "function"
    },
    {
      "inputs": [
        {
          "internalType": "bytes32",
          "name": "_hash",
          "type": "bytes32"
        }
      ],
      "name": "getReward",
      "outputs": [],
      "stateMutability": "nonpayable",
      "type": "function"
    },
    {
      "inputs": [
        {
          "internalType": "bytes32",
          "name": "_hash",
          "type": "bytes32"
        },
        {
          "internalType": "uint256",
          "name": "_amount",
          "type": "uint256"
        }
      ],
      "name": "withdraw",
      "outputs": [],
      "stateMutability": "nonpayable",
      "type": "function"
    },
    {
      "inputs": [
        {
          "internalType": "uint256",
          "name": "_index",
          "type": "uint256"
        }
      ],
      "name": "getDepositInfo",
      "outputs": [
        {
          "internalType": "uint256",
          "name": "",
          "type": "uint256"
        }
      ],
      "stateMutability": "view",
      "type": "function"
    },
    {
      "inputs": [
        {
          "internalType": "bytes32",
          "name": "_hash",
          "type": "bytes32"
        }
      ],
      "name": "lastTimeRewardApplicable",
      "outputs": [
        {
          "internalType": "uint256",
          "name": "",
          "type": "uint256"
        }
      ],
      "stateMutability": "view",
      "type": "function"
    },
    {
      "inputs": [
        {
          "internalType": "bytes32",
          "name": "_hash",
          "type": "bytes32"
        }
      ],
      "name": "rewardPerToken",
      "outputs": [
        {
          "internalType": "uint256",
          "name": "",
          "type": "uint256"
        }
      ],
      "stateMutability": "view",
      "type": "function"
    },
    {
      "inputs": [
        {
          "internalType": "address",
          "name": "account",
          "type": "address"
        },
        {
          "internalType": "bytes32",
          "name": "_hash",
          "type": "bytes32"
        }
      ],
      "name": "earned",
      "outputs": [
        {
          "internalType": "uint256",
          "name": "",
          "type": "uint256"
        }
      ],
      "stateMutability": "view",
      "type": "function"
    }
  ],
  "bytecode": "0x608060405234801561001057600080fd5b50604051611d66380380611d668339818101604052602081101561003357600080fd5b8101908080519060200190929190505050806000806101000a81548173ffffffffffffffffffffffffffffffffffffffff021916908373ffffffffffffffffffffffffffffffffffffffff16021790555050611cd2806100946000396000f3fe608060405234801561001057600080fd5b50600436106100b45760003560e01c806363fed9a41161007157806363fed9a41461026e5780637d8741f11461029c57806383c592cf146102de57806384a0840014610316578063cbcf027014610358578063ef295401146103da576100b4565b8063040cf020146100b9578063081e3eda146100f15780630ca362631461010f5780631526fe271461013d57806333c52a3f146101ea5780635328c2bf1461022c575b600080fd5b6100ef600480360360408110156100cf57600080fd5b81019080803590602001909291908035906020019092919050505061043c565b005b6100f9610794565b6040518082815260200191505060405180910390f35b61013b6004803603602081101561012557600080fd5b810190808035906020019092919050505061079a565b005b6101696004803603602081101561015357600080fd5b8101908080359060200190929190505050610824565b604051808b73ffffffffffffffffffffffffffffffffffffffff1681526020018a73ffffffffffffffffffffffffffffffffffffffff1681526020018981526020018881526020018781526020018681526020018581526020018481526020018381526020018281526020019a505050505050505050505060405180910390f35b6102166004803603602081101561020057600080fd5b81019080803590602001909291905050506108c5565b6040518082815260200191505060405180910390f35b6102586004803603602081101561024257600080fd5b8101908080359060200190929190505050610a18565b6040518082815260200191505060405180910390f35b61029a6004803603602081101561028457600080fd5b8101908080359060200190929190505050610a7d565b005b6102c8600480360360208110156102b257600080fd5b8101908080359060200190929190505050610d0b565b6040518082815260200191505060405180910390f35b610314600480360360408110156102f457600080fd5b810190808035906020019092919080359060200190929190505050610d54565b005b6103426004803603602081101561032c57600080fd5b8101908080359060200190929190505050611096565b6040518082815260200191505060405180910390f35b6103d8600480360360a081101561036e57600080fd5b81019080803573ffffffffffffffffffffffffffffffffffffffff169060200190929190803573ffffffffffffffffffffffffffffffffffffffff1690602001909291908035906020019092919080359060200190929190803590602001909291905050506110ae565b005b610426600480360360408110156103f057600080fd5b81019080803573ffffffffffffffffffffffffffffffffffffffff1690602001909291908035906020019092919050505061138b565b6040518082815260200191505060405180910390f35b338260006003600083815260200190815260200160002054905061045f826108c5565b6002828154811061046c57fe5b90600052602060002090600d02016008018190555061048a82610d0b565b6002828154811061049757fe5b90600052602060002090600d020160070181905550600073ffffffffffffffffffffffffffffffffffffffff168373ffffffffffffffffffffffffffffffffffffffff16146105c8576104ea838361138b565b600282815481106104f757fe5b90600052602060002090600d0201600b0160008573ffffffffffffffffffffffffffffffffffffffff1673ffffffffffffffffffffffffffffffffffffffff168152602001908152602001600020819055506002818154811061055657fe5b90600052602060002090600d0201600801546002828154811061057557fe5b90600052602060002090600d0201600a0160008573ffffffffffffffffffffffffffffffffffffffff1673ffffffffffffffffffffffffffffffffffffffff168152602001908152602001600020819055505b6000841161063e576040517f08c379a000000000000000000000000000000000000000000000000000000000815260040180806020018281038252600e8152602001807f43616e6e6f74207374616b65203000000000000000000000000000000000000081525060200191505060405180910390fd5b6000600360008781526020019081526020016000205490506106c4856002838154811061066757fe5b90600052602060002090600d0201600c0160003373ffffffffffffffffffffffffffffffffffffffff1673ffffffffffffffffffffffffffffffffffffffff1681526020019081526020016000205461151790919063ffffffff16565b600282815481106106d157fe5b90600052602060002090600d0201600c0160003373ffffffffffffffffffffffffffffffffffffffff1673ffffffffffffffffffffffffffffffffffffffff1681526020019081526020016000208190555061078c33866002848154811061073557fe5b90600052602060002090600d020160000160009054906101000a900473ffffffffffffffffffffffffffffffffffffffff1673ffffffffffffffffffffffffffffffffffffffff166115619092919063ffffffff16565b505050505050565b60015481565b60006003600083815260200190815260200160002054905061081782600283815481106107c357fe5b90600052602060002090600d0201600c0160003373ffffffffffffffffffffffffffffffffffffffff1673ffffffffffffffffffffffffffffffffffffffff1681526020019081526020016000205461043c565b61082082610a7d565b5050565b6002818154811061083157fe5b90600052602060002090600d02016000915090508060000160009054906101000a900473ffffffffffffffffffffffffffffffffffffffff16908060010160009054906101000a900473ffffffffffffffffffffffffffffffffffffffff1690806002015490806003015490806004015490806005015490806006015490806007015490806008015490806009015490508a565b600080600360008481526020019081526020016000205490506000600282815481106108ed57fe5b90600052602060002090600d020160090154141561092c576002818154811061091257fe5b90600052602060002090600d020160080154915050610a13565b610a0f6109e26002838154811061093f57fe5b90600052602060002090600d0201600901546109d4670de0b6b3a76400006109c66002878154811061096d57fe5b90600052602060002090600d0201600601546109b86002898154811061098f57fe5b90600052602060002090600d0201600701546109aa8c610d0b565b61151790919063ffffffff16565b61160390919063ffffffff16565b61160390919063ffffffff16565b61168990919063ffffffff16565b600283815481106109ef57fe5b90600052602060002090600d0201600801546116d390919063ffffffff16565b9150505b919050565b600060028281548110610a2757fe5b90600052602060002090600d0201600c0160003373ffffffffffffffffffffffffffffffffffffffff1673ffffffffffffffffffffffffffffffffffffffff168152602001908152602001600020549050919050565b3381600060036000838152602001908152602001600020549050610aa0826108c5565b60028281548110610aad57fe5b90600052602060002090600d020160080181905550610acb82610d0b565b60028281548110610ad857fe5b90600052602060002090600d020160070181905550600073ffffffffffffffffffffffffffffffffffffffff168373ffffffffffffffffffffffffffffffffffffffff1614610c0957610b2b838361138b565b60028281548110610b3857fe5b90600052602060002090600d0201600b0160008573ffffffffffffffffffffffffffffffffffffffff1673ffffffffffffffffffffffffffffffffffffffff1681526020019081526020016000208190555060028181548110610b9757fe5b90600052602060002090600d02016008015460028281548110610bb657fe5b90600052602060002090600d0201600a0160008573ffffffffffffffffffffffffffffffffffffffff1673ffffffffffffffffffffffffffffffffffffffff168152602001908152602001600020819055505b6000610c15338661138b565b90506000600360008781526020019081526020016000205490506000821115610d0357600060028281548110610c4757fe5b90600052602060002090600d0201600b0160003373ffffffffffffffffffffffffffffffffffffffff1673ffffffffffffffffffffffffffffffffffffffff16815260200190815260200160002081905550610d02338360028481548110610cab57fe5b90600052602060002090600d020160010160009054906101000a900473ffffffffffffffffffffffffffffffffffffffff1673ffffffffffffffffffffffffffffffffffffffff166115619092919063ffffffff16565b5b505050505050565b60008060036000848152602001908152602001600020549050610d4c4260028381548110610d3557fe5b90600052602060002090600d02016005015461175b565b915050919050565b3381600060036000838152602001908152602001600020549050610d77826108c5565b60028281548110610d8457fe5b90600052602060002090600d020160080181905550610da282610d0b565b60028281548110610daf57fe5b90600052602060002090600d020160070181905550600073ffffffffffffffffffffffffffffffffffffffff168373ffffffffffffffffffffffffffffffffffffffff1614610ee057610e02838361138b565b60028281548110610e0f57fe5b90600052602060002090600d0201600b0160008573ffffffffffffffffffffffffffffffffffffffff1673ffffffffffffffffffffffffffffffffffffffff1681526020019081526020016000208190555060028181548110610e6e57fe5b90600052602060002090600d02016008015460028281548110610e8d57fe5b90600052602060002090600d0201600a0160008573ffffffffffffffffffffffffffffffffffffffff1673ffffffffffffffffffffffffffffffffffffffff168152602001908152602001600020819055505b60008511610f56576040517f08c379a000000000000000000000000000000000000000000000000000000000815260040180806020018281038252600e8152602001807f43616e6e6f74207374616b65203000000000000000000000000000000000000081525060200191505060405180910390fd5b600060036000868152602001908152602001600020549050610fdc8660028381548110610f7f57fe5b90600052602060002090600d0201600c0160003373ffffffffffffffffffffffffffffffffffffffff1673ffffffffffffffffffffffffffffffffffffffff168152602001908152602001600020546116d390919063ffffffff16565b60028281548110610fe957fe5b90600052602060002090600d0201600c0160003373ffffffffffffffffffffffffffffffffffffffff1673ffffffffffffffffffffffffffffffffffffffff1681526020019081526020016000208190555061106c866002838154811061104c57fe5b90600052602060002090600d0201600901546116d390919063ffffffff16565b6002828154811061107957fe5b90600052602060002090600d020160090181905550505050505050565b60036020528060005260406000206000915090505481565b81421115611124576040517f08c379a00000000000000000000000000000000000000000000000000000000081526004018080602001828103825260128152602001807f696e76616c69642073746172742074696d65000000000000000000000000000081525060200191505060405180910390fd5b6111513330858773ffffffffffffffffffffffffffffffffffffffff16611774909392919063ffffffff16565b6000611166828561168990919063ffffffff16565b905060026040518061014001604052808873ffffffffffffffffffffffffffffffffffffffff1681526020018773ffffffffffffffffffffffffffffffffffffffff1681526020018681526020018581526020018481526020016111d385876116d390919063ffffffff16565b815260200183815260200185815260200160008152602001600081525090806001815401808255809150506001900390600052602060002090600d020160009091909190915060008201518160000160006101000a81548173ffffffffffffffffffffffffffffffffffffffff021916908373ffffffffffffffffffffffffffffffffffffffff16021790555060208201518160010160006101000a81548173ffffffffffffffffffffffffffffffffffffffff021916908373ffffffffffffffffffffffffffffffffffffffff16021790555060408201518160020155606082015181600301556080820151816004015560a0820151816005015560c0820151816006015560e082015181600701556101008201518160080155610120820151816009015550506001600081548092919060010191905055506001805403600360008888604051602001808373ffffffffffffffffffffffffffffffffffffffff1681526020018273ffffffffffffffffffffffffffffffffffffffff1681526020019250505060405160208183030381529060405280519060200120815260200190815260200160002081905550505050505050565b6000806003600084815260200190815260200160002054905061150e600282815481106113b457fe5b90600052602060002090600d0201600b0160008673ffffffffffffffffffffffffffffffffffffffff1673ffffffffffffffffffffffffffffffffffffffff16815260200190815260200160002054611500670de0b6b3a76400006114f26114886002878154811061142257fe5b90600052602060002090600d0201600a0160008b73ffffffffffffffffffffffffffffffffffffffff1673ffffffffffffffffffffffffffffffffffffffff1681526020019081526020016000205461147a8a6108c5565b61151790919063ffffffff16565b6002878154811061149557fe5b90600052602060002090600d0201600c0160008b73ffffffffffffffffffffffffffffffffffffffff1673ffffffffffffffffffffffffffffffffffffffff1681526020019081526020016000205461160390919063ffffffff16565b61168990919063ffffffff16565b6116d390919063ffffffff16565b91505092915050565b600061155983836040518060400160405280601e81526020017f536166654d6174683a207375627472616374696f6e206f766572666c6f770000815250611835565b905092915050565b6115fe8363a9059cbb60e01b8484604051602401808373ffffffffffffffffffffffffffffffffffffffff16815260200182815260200192505050604051602081830303815290604052907bffffffffffffffffffffffffffffffffffffffffffffffffffffffff19166020820180517bffffffffffffffffffffffffffffffffffffffffffffffffffffffff83818316178352505050506118f5565b505050565b6000808314156116165760009050611683565b600082840290508284828161162757fe5b041461167e576040517f08c379a0000000000000000000000000000000000000000000000000000000008152600401808060200182810382526021815260200180611c526021913960400191505060405180910390fd5b809150505b92915050565b60006116cb83836040518060400160405280601a81526020017f536166654d6174683a206469766973696f6e206279207a65726f000000000000815250611b40565b905092915050565b600080828401905083811015611751576040517f08c379a000000000000000000000000000000000000000000000000000000000815260040180806020018281038252601b8152602001807f536166654d6174683a206164646974696f6e206f766572666c6f77000000000081525060200191505060405180910390fd5b8091505092915050565b600081831061176a578161176c565b825b905092915050565b61182f846323b872dd60e01b858585604051602401808473ffffffffffffffffffffffffffffffffffffffff1681526020018373ffffffffffffffffffffffffffffffffffffffff1681526020018281526020019350505050604051602081830303815290604052907bffffffffffffffffffffffffffffffffffffffffffffffffffffffff19166020820180517bffffffffffffffffffffffffffffffffffffffffffffffffffffffff83818316178352505050506118f5565b50505050565b60008383111582906118e2576040517f08c379a00000000000000000000000000000000000000000000000000000000081526004018080602001828103825283818151815260200191508051906020019080838360005b838110156118a757808201518184015260208101905061188c565b50505050905090810190601f1680156118d45780820380516001836020036101000a031916815260200191505b509250505060405180910390fd5b5060008385039050809150509392505050565b6119148273ffffffffffffffffffffffffffffffffffffffff16611c06565b611986576040517f08c379a000000000000000000000000000000000000000000000000000000000815260040180806020018281038252601f8152602001807f5361666545524332303a2063616c6c20746f206e6f6e2d636f6e74726163740081525060200191505060405180910390fd5b600060608373ffffffffffffffffffffffffffffffffffffffff16836040518082805190602001908083835b602083106119d557805182526020820191506020810190506020830392506119b2565b6001836020036101000a0380198251168184511680821785525050505050509050019150506000604051808303816000865af19150503d8060008114611a37576040519150601f19603f3d011682016040523d82523d6000602084013e611a3c565b606091505b509150915081611ab4576040517f08c379a00000000000000000000000000000000000000000000000000000000081526004018080602001828103825260208152602001807f5361666545524332303a206c6f772d6c6576656c2063616c6c206661696c656481525060200191505060405180910390fd5b600081511115611b3a57808060200190516020811015611ad357600080fd5b8101908080519060200190929190505050611b39576040517f08c379a000000000000000000000000000000000000000000000000000000000815260040180806020018281038252602a815260200180611c73602a913960400191505060405180910390fd5b5b50505050565b60008083118290611bec576040517f08c379a00000000000000000000000000000000000000000000000000000000081526004018080602001828103825283818151815260200191508051906020019080838360005b83811015611bb1578082015181840152602081019050611b96565b50505050905090810190601f168015611bde5780820380516001836020036101000a031916815260200191505b509250505060405180910390fd5b506000838581611bf857fe5b049050809150509392505050565b60008060007fc5d2460186f7233c927e7db2dcc703c0e500b653ca82273b7bfad8045d85a47060001b9050833f91506000801b8214158015611c485750808214155b9250505091905056fe536166654d6174683a206d756c7469706c69636174696f6e206f766572666c6f775361666545524332303a204552433230206f7065726174696f6e20646964206e6f742073756363656564a2646970667358221220dd1a0b8b936b32b408e4c4eceecfa99edbf54576c803301650aa8b6d0c5a6e1a64736f6c634300060c0033",
  "immutableReferences": {},
  "source": "// SPDX-License-Identifier: MIT\r\npragma solidity ^0.6.12;\r\n\r\nimport \"../../interface/IERC20.sol\";\r\nimport \"../../libraries/Math.sol\";\r\nimport \"../../libraries/SafeMath.sol\";\r\nimport \"../../libraries/Address.sol\";\r\nimport \"../../libraries/SafeERC20.sol\";\r\nimport \"../interface/IMasterChef.sol\";\r\n\r\n\r\ncontract FirstAllocation {\r\n    using SafeMath for uint256;\r\n    using SafeERC20 for IERC20;\r\n\r\n    IMasterChef masterChef;\r\n\r\n    struct PoolInfo {\r\n\r\n        IERC20 lpToken;\r\n\r\n        IERC20 rewardToken;\r\n\r\n        uint rewardAmount;\r\n\r\n        uint startTime;\r\n\r\n        uint duration;\r\n\r\n        uint periodFinish;\r\n\r\n        uint rewardRate;\r\n\r\n        uint lastUpdateTime;\r\n\r\n        uint rewardPerTokenStored;\r\n\r\n        uint totalAmount;\r\n\r\n        mapping(address => uint256) userRewardPerTokenPaid;\r\n\r\n\r\n        mapping(address => uint256) rewards;\r\n\r\n\r\n        mapping(address => uint256) deposits;\r\n    }\r\n\r\n    uint public poolLength;\r\n\r\n    PoolInfo[] public poolInfo;\r\n\r\n\r\n    mapping(bytes32 => uint) public poolIndex;\r\n\r\n    constructor(IMasterChef _masterChef) public {\r\n        masterChef = _masterChef;\r\n    }\r\n\r\n    function add(\r\n        IERC20 _lpToken,\r\n        IERC20 _rewardToken,\r\n        uint _rewardAmount,\r\n        uint _startTime,\r\n        uint _duration\r\n    ) external {\r\n        require(block.timestamp <= _startTime, \"invalid start time\");\r\n        _rewardToken.safeTransferFrom(msg.sender, address(this), _rewardAmount);\r\n        uint _rewardRate = _rewardAmount.div(_duration);\r\n        poolInfo.push(PoolInfo({\r\n            lpToken: _lpToken,\r\n            rewardToken: _rewardToken,\r\n            rewardAmount: _rewardAmount,\r\n            startTime: _startTime,\r\n            duration: _duration,\r\n            periodFinish: _startTime.add(_duration),\r\n            rewardRate: _rewardRate,\r\n            lastUpdateTime: _startTime,\r\n            rewardPerTokenStored: 0,\r\n            totalAmount: 0\r\n        }));\r\n        poolLength++;\r\n        poolIndex[keccak256(abi.encode(_lpToken, _rewardToken))] = poolLength - 1;\r\n    }\r\n\r\n    function stake(uint _amount, bytes32 _hash) external updateReward( msg.sender, _hash) {\r\n        require(_amount > 0, \"Cannot stake 0\");\r\n        uint index = poolIndex[_hash];\r\n        poolInfo[index].deposits[ msg.sender] = poolInfo[index].deposits[ msg.sender].add(_amount);\r\n        poolInfo[index].totalAmount = poolInfo[index].totalAmount.add(_amount);\r\n    }\r\n\r\n\r\n    function exit(bytes32 _hash) external {\r\n        uint index = poolIndex[_hash];\r\n        withdraw(_hash, poolInfo[index].deposits[ msg.sender]);\r\n        getReward( _hash);\r\n    }\r\n\r\n\r\n    function getReward(bytes32 _hash) public updateReward( msg.sender, _hash) {\r\n        uint256 reward = earned( msg.sender, _hash);\r\n        uint index = poolIndex[_hash];\r\n        if (reward > 0) {\r\n            poolInfo[index].rewards[ msg.sender] = 0;\r\n            poolInfo[index].rewardToken.safeTransfer( msg.sender, reward);\r\n        }\r\n    }\r\n\r\n    function withdraw(bytes32 _hash, uint _amount) public updateReward( msg.sender, _hash) {\r\n        require(_amount > 0, \"Cannot stake 0\");\r\n        uint index = poolIndex[_hash];\r\n        poolInfo[index].deposits[ msg.sender] = poolInfo[index].deposits[ msg.sender].sub(_amount);\r\n        poolInfo[index].lpToken.safeTransfer( msg.sender, _amount);\r\n    }\r\n\r\n    function getDepositInfo(uint _index) public view returns(uint) {\r\n        return poolInfo[_index].deposits[msg.sender];\r\n    }\r\n\r\n    modifier updateReward(address account, bytes32 _hash) {\r\n        uint index = poolIndex[_hash];\r\n        poolInfo[index].rewardPerTokenStored = rewardPerToken(_hash);\r\n        poolInfo[index].lastUpdateTime = lastTimeRewardApplicable(_hash);\r\n        if (account != address(0)) {\r\n            poolInfo[index].rewards[account] = earned(account, _hash);\r\n            poolInfo[index].userRewardPerTokenPaid[account] = poolInfo[index].rewardPerTokenStored;\r\n        }\r\n        _;\r\n    }\r\n\r\n    function lastTimeRewardApplicable(bytes32 _hash) public view returns (uint256) {\r\n        uint index = poolIndex[_hash];\r\n        return Math.min(block.timestamp, poolInfo[index].periodFinish);\r\n    }\r\n\r\n    function rewardPerToken(bytes32 _hash) public view returns (uint256) {\r\n        uint index = poolIndex[_hash];\r\n        if (poolInfo[index].totalAmount == 0) {\r\n            return poolInfo[index].rewardPerTokenStored;\r\n        }\r\n\r\n        return\r\n            poolInfo[index].rewardPerTokenStored.add(\r\n                lastTimeRewardApplicable(_hash)\r\n                    .sub(poolInfo[index].lastUpdateTime)\r\n                    .mul(poolInfo[index].rewardRate)\r\n                    .mul(1e18)\r\n                    .div(poolInfo[index].totalAmount)\r\n            );\r\n    }\r\n\r\n    function earned(address account, bytes32 _hash) public view returns (uint256) {\r\n        uint index = poolIndex[_hash];\r\n\r\n        return\r\n            poolInfo[index].deposits[account]\r\n                .mul(rewardPerToken(_hash).sub(poolInfo[index].userRewardPerTokenPaid[account]))\r\n                .div(1e18)\r\n                .add(poolInfo[index].rewards[account]);\r\n    }\r\n\r\n}",
  "sourcePath": "E:/truffle/defiplus/contracts/mine/allocation/FirstAllocation.sol",
  "compiler": {
    "name": "solc",
    "version": "0.6.12+commit.27d51765.Emscripten.clang"
  },
  "schemaVersion": "3.3.4",
  "updatedAt": "2021-03-06T12:53:42.325Z",
  "devdoc": {
    "kind": "dev",
    "methods": {},
    "version": 1
  },
  "userdoc": {
    "kind": "user",
    "methods": {},
    "version": 1
  }
}