{
  "contractName": "FirstAllocation",
  "abi": [
    {
      "inputs": [
        {
          "internalType": "contract IMasterChef",
          "name": "_masterChef",
          "type": "address"
        }
      ],
      "stateMutability": "nonpayable",
      "type": "constructor"
    },
    {
      "inputs": [
        {
          "internalType": "bytes32",
          "name": "",
          "type": "bytes32"
        }
      ],
      "name": "poolIndex",
      "outputs": [
        {
          "internalType": "uint256",
          "name": "",
          "type": "uint256"
        }
      ],
      "stateMutability": "view",
      "type": "function"
    },
    {
      "inputs": [
        {
          "internalType": "uint256",
          "name": "",
          "type": "uint256"
        }
      ],
      "name": "poolInfo",
      "outputs": [
        {
          "internalType": "contract IERC20",
          "name": "lpToken",
          "type": "address"
        },
        {
          "internalType": "contract IERC20",
          "name": "rewardToken",
          "type": "address"
        },
        {
          "internalType": "uint256",
          "name": "rewardAmount",
          "type": "uint256"
        },
        {
          "internalType": "uint256",
          "name": "startTime",
          "type": "uint256"
        },
        {
          "internalType": "uint256",
          "name": "duration",
          "type": "uint256"
        },
        {
          "internalType": "uint256",
          "name": "periodFinish",
          "type": "uint256"
        },
        {
          "internalType": "uint256",
          "name": "rewardRate",
          "type": "uint256"
        },
        {
          "internalType": "uint256",
          "name": "lastUpdateTime",
          "type": "uint256"
        },
        {
          "internalType": "uint256",
          "name": "rewardPerTokenStored",
          "type": "uint256"
        },
        {
          "internalType": "uint256",
          "name": "totalAmount",
          "type": "uint256"
        }
      ],
      "stateMutability": "view",
      "type": "function"
    },
    {
      "inputs": [
        {
          "internalType": "contract IERC20",
          "name": "_lpToken",
          "type": "address"
        },
        {
          "internalType": "contract IERC20",
          "name": "_rewardToken",
          "type": "address"
        },
        {
          "internalType": "uint256",
          "name": "_rewardAmount",
          "type": "uint256"
        },
        {
          "internalType": "uint256",
          "name": "_startTime",
          "type": "uint256"
        },
        {
          "internalType": "uint256",
          "name": "_duration",
          "type": "uint256"
        }
      ],
      "name": "add",
      "outputs": [],
      "stateMutability": "nonpayable",
      "type": "function"
    },
    {
      "inputs": [
        {
          "internalType": "uint256",
          "name": "_amount",
          "type": "uint256"
        },
        {
          "internalType": "bytes32",
          "name": "_hash",
          "type": "bytes32"
        }
      ],
      "name": "stake",
      "outputs": [],
      "stateMutability": "nonpayable",
      "type": "function"
    },
    {
      "inputs": [
        {
          "internalType": "bytes32",
          "name": "_hash",
          "type": "bytes32"
        }
      ],
      "name": "exit",
      "outputs": [],
      "stateMutability": "nonpayable",
      "type": "function"
    },
    {
      "inputs": [
        {
          "internalType": "bytes32",
          "name": "_hash",
          "type": "bytes32"
        }
      ],
      "name": "getReward",
      "outputs": [],
      "stateMutability": "nonpayable",
      "type": "function"
    },
    {
      "inputs": [
        {
          "internalType": "bytes32",
          "name": "_hash",
          "type": "bytes32"
        },
        {
          "internalType": "uint256",
          "name": "_amount",
          "type": "uint256"
        }
      ],
      "name": "withdraw",
      "outputs": [],
      "stateMutability": "nonpayable",
      "type": "function"
    },
    {
      "inputs": [],
      "name": "poolLength",
      "outputs": [
        {
          "internalType": "uint256",
          "name": "",
          "type": "uint256"
        }
      ],
      "stateMutability": "view",
      "type": "function"
    },
    {
      "inputs": [
        {
          "internalType": "bytes32",
          "name": "_hash",
          "type": "bytes32"
        }
      ],
      "name": "lastTimeRewardApplicable",
      "outputs": [
        {
          "internalType": "uint256",
          "name": "",
          "type": "uint256"
        }
      ],
      "stateMutability": "view",
      "type": "function"
    },
    {
      "inputs": [
        {
          "internalType": "bytes32",
          "name": "_hash",
          "type": "bytes32"
        }
      ],
      "name": "rewardPerToken",
      "outputs": [
        {
          "internalType": "uint256",
          "name": "",
          "type": "uint256"
        }
      ],
      "stateMutability": "view",
      "type": "function"
    },
    {
      "inputs": [
        {
          "internalType": "address",
          "name": "account",
          "type": "address"
        },
        {
          "internalType": "bytes32",
          "name": "_hash",
          "type": "bytes32"
        }
      ],
      "name": "earned",
      "outputs": [
        {
          "internalType": "uint256",
          "name": "",
          "type": "uint256"
        }
      ],
      "stateMutability": "view",
      "type": "function"
    }
  ],
  "bytecode": "0x608060405234801561001057600080fd5b50604051611cac380380611cac8339818101604052602081101561003357600080fd5b8101908080519060200190929190505050806000806101000a81548173ffffffffffffffffffffffffffffffffffffffff021916908373ffffffffffffffffffffffffffffffffffffffff16021790555050611c18806100946000396000f3fe608060405234801561001057600080fd5b50600436106100a95760003560e01c806363fed9a41161007157806363fed9a4146102215780637d8741f11461024f57806383c592cf1461029157806384a08400146102c9578063cbcf02701461030b578063ef2954011461038d576100a9565b8063040cf020146100ae578063081e3eda146100e65780630ca36263146101045780631526fe271461013257806333c52a3f146101df575b600080fd5b6100e4600480360360408110156100c457600080fd5b8101908080359060200190929190803590602001909291905050506103ef565b005b6100ee610747565b6040518082815260200191505060405180910390f35b6101306004803603602081101561011a57600080fd5b8101908080359060200190929190505050610754565b005b61015e6004803603602081101561014857600080fd5b81019080803590602001909291905050506107de565b604051808b73ffffffffffffffffffffffffffffffffffffffff1681526020018a73ffffffffffffffffffffffffffffffffffffffff1681526020018981526020018881526020018781526020018681526020018581526020018481526020018381526020018281526020019a505050505050505050505060405180910390f35b61020b600480360360208110156101f557600080fd5b810190808035906020019092919050505061087f565b6040518082815260200191505060405180910390f35b61024d6004803603602081101561023757600080fd5b81019080803590602001909291905050506109d2565b005b61027b6004803603602081101561026557600080fd5b8101908080359060200190929190505050610c60565b6040518082815260200191505060405180910390f35b6102c7600480360360408110156102a757600080fd5b810190808035906020019092919080359060200190929190505050610ca9565b005b6102f5600480360360208110156102df57600080fd5b8101908080359060200190929190505050610feb565b6040518082815260200191505060405180910390f35b61038b600480360360a081101561032157600080fd5b81019080803573ffffffffffffffffffffffffffffffffffffffff169060200190929190803573ffffffffffffffffffffffffffffffffffffffff169060200190929190803590602001909291908035906020019092919080359060200190929190505050611003565b005b6103d9600480360360408110156103a357600080fd5b81019080803573ffffffffffffffffffffffffffffffffffffffff169060200190929190803590602001909291905050506112d1565b6040518082815260200191505060405180910390f35b33826000600260008381526020019081526020016000205490506104128261087f565b6001828154811061041f57fe5b90600052602060002090600d02016008018190555061043d82610c60565b6001828154811061044a57fe5b90600052602060002090600d020160070181905550600073ffffffffffffffffffffffffffffffffffffffff168373ffffffffffffffffffffffffffffffffffffffff161461057b5761049d83836112d1565b600182815481106104aa57fe5b90600052602060002090600d0201600b0160008573ffffffffffffffffffffffffffffffffffffffff1673ffffffffffffffffffffffffffffffffffffffff168152602001908152602001600020819055506001818154811061050957fe5b90600052602060002090600d0201600801546001828154811061052857fe5b90600052602060002090600d0201600a0160008573ffffffffffffffffffffffffffffffffffffffff1673ffffffffffffffffffffffffffffffffffffffff168152602001908152602001600020819055505b600084116105f1576040517f08c379a000000000000000000000000000000000000000000000000000000000815260040180806020018281038252600e8152602001807f43616e6e6f74207374616b65203000000000000000000000000000000000000081525060200191505060405180910390fd5b600060026000878152602001908152602001600020549050610677856001838154811061061a57fe5b90600052602060002090600d0201600c0160003373ffffffffffffffffffffffffffffffffffffffff1673ffffffffffffffffffffffffffffffffffffffff1681526020019081526020016000205461145d90919063ffffffff16565b6001828154811061068457fe5b90600052602060002090600d0201600c0160003373ffffffffffffffffffffffffffffffffffffffff1673ffffffffffffffffffffffffffffffffffffffff1681526020019081526020016000208190555061073f3386600184815481106106e857fe5b90600052602060002090600d020160000160009054906101000a900473ffffffffffffffffffffffffffffffffffffffff1673ffffffffffffffffffffffffffffffffffffffff166114a79092919063ffffffff16565b505050505050565b6000600180549050905090565b6000600260008381526020019081526020016000205490506107d1826001838154811061077d57fe5b90600052602060002090600d0201600c0160003373ffffffffffffffffffffffffffffffffffffffff1673ffffffffffffffffffffffffffffffffffffffff168152602001908152602001600020546103ef565b6107da826109d2565b5050565b600181815481106107eb57fe5b90600052602060002090600d02016000915090508060000160009054906101000a900473ffffffffffffffffffffffffffffffffffffffff16908060010160009054906101000a900473ffffffffffffffffffffffffffffffffffffffff1690806002015490806003015490806004015490806005015490806006015490806007015490806008015490806009015490508a565b600080600260008481526020019081526020016000205490506000600182815481106108a757fe5b90600052602060002090600d02016009015414156108e657600181815481106108cc57fe5b90600052602060002090600d0201600801549150506109cd565b6109c961099c600183815481106108f957fe5b90600052602060002090600d02016009015461098e670de0b6b3a76400006109806001878154811061092757fe5b90600052602060002090600d0201600601546109726001898154811061094957fe5b90600052602060002090600d0201600701546109648c610c60565b61145d90919063ffffffff16565b61154990919063ffffffff16565b61154990919063ffffffff16565b6115cf90919063ffffffff16565b600183815481106109a957fe5b90600052602060002090600d02016008015461161990919063ffffffff16565b9150505b919050565b33816000600260008381526020019081526020016000205490506109f58261087f565b60018281548110610a0257fe5b90600052602060002090600d020160080181905550610a2082610c60565b60018281548110610a2d57fe5b90600052602060002090600d020160070181905550600073ffffffffffffffffffffffffffffffffffffffff168373ffffffffffffffffffffffffffffffffffffffff1614610b5e57610a8083836112d1565b60018281548110610a8d57fe5b90600052602060002090600d0201600b0160008573ffffffffffffffffffffffffffffffffffffffff1673ffffffffffffffffffffffffffffffffffffffff1681526020019081526020016000208190555060018181548110610aec57fe5b90600052602060002090600d02016008015460018281548110610b0b57fe5b90600052602060002090600d0201600a0160008573ffffffffffffffffffffffffffffffffffffffff1673ffffffffffffffffffffffffffffffffffffffff168152602001908152602001600020819055505b6000610b6a33866112d1565b90506000600260008781526020019081526020016000205490506000821115610c5857600060018281548110610b9c57fe5b90600052602060002090600d0201600b0160003373ffffffffffffffffffffffffffffffffffffffff1673ffffffffffffffffffffffffffffffffffffffff16815260200190815260200160002081905550610c57338360018481548110610c0057fe5b90600052602060002090600d020160010160009054906101000a900473ffffffffffffffffffffffffffffffffffffffff1673ffffffffffffffffffffffffffffffffffffffff166114a79092919063ffffffff16565b5b505050505050565b60008060026000848152602001908152602001600020549050610ca14260018381548110610c8a57fe5b90600052602060002090600d0201600501546116a1565b915050919050565b3381600060026000838152602001908152602001600020549050610ccc8261087f565b60018281548110610cd957fe5b90600052602060002090600d020160080181905550610cf782610c60565b60018281548110610d0457fe5b90600052602060002090600d020160070181905550600073ffffffffffffffffffffffffffffffffffffffff168373ffffffffffffffffffffffffffffffffffffffff1614610e3557610d5783836112d1565b60018281548110610d6457fe5b90600052602060002090600d0201600b0160008573ffffffffffffffffffffffffffffffffffffffff1673ffffffffffffffffffffffffffffffffffffffff1681526020019081526020016000208190555060018181548110610dc357fe5b90600052602060002090600d02016008015460018281548110610de257fe5b90600052602060002090600d0201600a0160008573ffffffffffffffffffffffffffffffffffffffff1673ffffffffffffffffffffffffffffffffffffffff168152602001908152602001600020819055505b60008511610eab576040517f08c379a000000000000000000000000000000000000000000000000000000000815260040180806020018281038252600e8152602001807f43616e6e6f74207374616b65203000000000000000000000000000000000000081525060200191505060405180910390fd5b600060026000868152602001908152602001600020549050610f318660018381548110610ed457fe5b90600052602060002090600d0201600c0160003373ffffffffffffffffffffffffffffffffffffffff1673ffffffffffffffffffffffffffffffffffffffff1681526020019081526020016000205461161990919063ffffffff16565b60018281548110610f3e57fe5b90600052602060002090600d0201600c0160003373ffffffffffffffffffffffffffffffffffffffff1673ffffffffffffffffffffffffffffffffffffffff16815260200190815260200160002081905550610fc18660018381548110610fa157fe5b90600052602060002090600d02016009015461161990919063ffffffff16565b60018281548110610fce57fe5b90600052602060002090600d020160090181905550505050505050565b60026020528060005260406000206000915090505481565b81421115611079576040517f08c379a00000000000000000000000000000000000000000000000000000000081526004018080602001828103825260128152602001807f696e76616c69642073746172742074696d65000000000000000000000000000081525060200191505060405180910390fd5b6110a63330858773ffffffffffffffffffffffffffffffffffffffff166116ba909392919063ffffffff16565b60006110bb82856115cf90919063ffffffff16565b905060016040518061014001604052808873ffffffffffffffffffffffffffffffffffffffff1681526020018773ffffffffffffffffffffffffffffffffffffffff168152602001868152602001858152602001848152602001611128858761161990919063ffffffff16565b815260200183815260200185815260200160008152602001600081525090806001815401808255809150506001900390600052602060002090600d020160009091909190915060008201518160000160006101000a81548173ffffffffffffffffffffffffffffffffffffffff021916908373ffffffffffffffffffffffffffffffffffffffff16021790555060208201518160010160006101000a81548173ffffffffffffffffffffffffffffffffffffffff021916908373ffffffffffffffffffffffffffffffffffffffff16021790555060408201518160020155606082015181600301556080820151816004015560a0820151816005015560c0820151816006015560e082015181600701556101008201518160080155610120820151816009015550506001808054905003600260008888604051602001808373ffffffffffffffffffffffffffffffffffffffff1681526020018273ffffffffffffffffffffffffffffffffffffffff1681526020019250505060405160208183030381529060405280519060200120815260200190815260200160002081905550505050505050565b60008060026000848152602001908152602001600020549050611454600182815481106112fa57fe5b90600052602060002090600d0201600b0160008673ffffffffffffffffffffffffffffffffffffffff1673ffffffffffffffffffffffffffffffffffffffff16815260200190815260200160002054611446670de0b6b3a76400006114386113ce6001878154811061136857fe5b90600052602060002090600d0201600a0160008b73ffffffffffffffffffffffffffffffffffffffff1673ffffffffffffffffffffffffffffffffffffffff168152602001908152602001600020546113c08a61087f565b61145d90919063ffffffff16565b600187815481106113db57fe5b90600052602060002090600d0201600c0160008b73ffffffffffffffffffffffffffffffffffffffff1673ffffffffffffffffffffffffffffffffffffffff1681526020019081526020016000205461154990919063ffffffff16565b6115cf90919063ffffffff16565b61161990919063ffffffff16565b91505092915050565b600061149f83836040518060400160405280601e81526020017f536166654d6174683a207375627472616374696f6e206f766572666c6f77000081525061177b565b905092915050565b6115448363a9059cbb60e01b8484604051602401808373ffffffffffffffffffffffffffffffffffffffff16815260200182815260200192505050604051602081830303815290604052907bffffffffffffffffffffffffffffffffffffffffffffffffffffffff19166020820180517bffffffffffffffffffffffffffffffffffffffffffffffffffffffff838183161783525050505061183b565b505050565b60008083141561155c57600090506115c9565b600082840290508284828161156d57fe5b04146115c4576040517f08c379a0000000000000000000000000000000000000000000000000000000008152600401808060200182810382526021815260200180611b986021913960400191505060405180910390fd5b809150505b92915050565b600061161183836040518060400160405280601a81526020017f536166654d6174683a206469766973696f6e206279207a65726f000000000000815250611a86565b905092915050565b600080828401905083811015611697576040517f08c379a000000000000000000000000000000000000000000000000000000000815260040180806020018281038252601b8152602001807f536166654d6174683a206164646974696f6e206f766572666c6f77000000000081525060200191505060405180910390fd5b8091505092915050565b60008183106116b057816116b2565b825b905092915050565b611775846323b872dd60e01b858585604051602401808473ffffffffffffffffffffffffffffffffffffffff1681526020018373ffffffffffffffffffffffffffffffffffffffff1681526020018281526020019350505050604051602081830303815290604052907bffffffffffffffffffffffffffffffffffffffffffffffffffffffff19166020820180517bffffffffffffffffffffffffffffffffffffffffffffffffffffffff838183161783525050505061183b565b50505050565b6000838311158290611828576040517f08c379a00000000000000000000000000000000000000000000000000000000081526004018080602001828103825283818151815260200191508051906020019080838360005b838110156117ed5780820151818401526020810190506117d2565b50505050905090810190601f16801561181a5780820380516001836020036101000a031916815260200191505b509250505060405180910390fd5b5060008385039050809150509392505050565b61185a8273ffffffffffffffffffffffffffffffffffffffff16611b4c565b6118cc576040517f08c379a000000000000000000000000000000000000000000000000000000000815260040180806020018281038252601f8152602001807f5361666545524332303a2063616c6c20746f206e6f6e2d636f6e74726163740081525060200191505060405180910390fd5b600060608373ffffffffffffffffffffffffffffffffffffffff16836040518082805190602001908083835b6020831061191b57805182526020820191506020810190506020830392506118f8565b6001836020036101000a0380198251168184511680821785525050505050509050019150506000604051808303816000865af19150503d806000811461197d576040519150601f19603f3d011682016040523d82523d6000602084013e611982565b606091505b5091509150816119fa576040517f08c379a00000000000000000000000000000000000000000000000000000000081526004018080602001828103825260208152602001807f5361666545524332303a206c6f772d6c6576656c2063616c6c206661696c656481525060200191505060405180910390fd5b600081511115611a8057808060200190516020811015611a1957600080fd5b8101908080519060200190929190505050611a7f576040517f08c379a000000000000000000000000000000000000000000000000000000000815260040180806020018281038252602a815260200180611bb9602a913960400191505060405180910390fd5b5b50505050565b60008083118290611b32576040517f08c379a00000000000000000000000000000000000000000000000000000000081526004018080602001828103825283818151815260200191508051906020019080838360005b83811015611af7578082015181840152602081019050611adc565b50505050905090810190601f168015611b245780820380516001836020036101000a031916815260200191505b509250505060405180910390fd5b506000838581611b3e57fe5b049050809150509392505050565b60008060007fc5d2460186f7233c927e7db2dcc703c0e500b653ca82273b7bfad8045d85a47060001b9050833f91506000801b8214158015611b8e5750808214155b9250505091905056fe536166654d6174683a206d756c7469706c69636174696f6e206f766572666c6f775361666545524332303a204552433230206f7065726174696f6e20646964206e6f742073756363656564a2646970667358221220fba66ba91e2f306353aa49beca5ee90cc4ef40ccdde0b47f7a50a5f1d945f5d564736f6c634300060c0033",
  "immutableReferences": {},
  "source": "// SPDX-License-Identifier: MIT\r\npragma solidity ^0.6.12;\r\n\r\nimport \"../../interface/IERC20.sol\";\r\nimport \"../../libraries/Math.sol\";\r\nimport \"../../libraries/SafeMath.sol\";\r\nimport \"../../libraries/Address.sol\";\r\nimport \"../../libraries/SafeERC20.sol\";\r\nimport \"../interface/IMasterChef.sol\";\r\n\r\n\r\ncontract FirstAllocation {\r\n    using SafeMath for uint256;\r\n    using SafeERC20 for IERC20;\r\n\r\n    IMasterChef masterChef;\r\n\r\n    struct PoolInfo {\r\n        // lp\r\n        IERC20 lpToken;\r\n\r\n        // token\r\n        IERC20 rewardToken;\r\n\r\n        // \r\n        uint rewardAmount;\r\n\r\n        // \r\n        uint startTime;\r\n\r\n        // \r\n        uint duration;\r\n\r\n        // \r\n        uint periodFinish;\r\n\r\n        // \r\n        uint rewardRate;\r\n\r\n        // \r\n        uint lastUpdateTime;\r\n\r\n        // token\r\n        uint rewardPerTokenStored;\r\n\r\n        // \r\n        uint totalAmount;\r\n\r\n        // token\r\n        mapping(address => uint256) userRewardPerTokenPaid;\r\n\r\n        // \r\n        mapping(address => uint256) rewards;\r\n\r\n        // \r\n        mapping(address => uint256) deposits;\r\n    }\r\n\r\n    PoolInfo[] public poolInfo;\r\n\r\n    // \r\n    mapping(bytes32 => uint) public poolIndex;\r\n\r\n    constructor(IMasterChef _masterChef) public {\r\n        masterChef = _masterChef;\r\n    }\r\n\r\n    function add(\r\n        IERC20 _lpToken,\r\n        IERC20 _rewardToken,\r\n        uint _rewardAmount,\r\n        uint _startTime,\r\n        uint _duration\r\n    ) external {\r\n        require(block.timestamp <= _startTime, \"invalid start time\");\r\n        _rewardToken.safeTransferFrom(msg.sender, address(this), _rewardAmount);\r\n        uint _rewardRate = _rewardAmount.div(_duration);\r\n        poolInfo.push(PoolInfo({\r\n            lpToken: _lpToken,\r\n            rewardToken: _rewardToken,\r\n            rewardAmount: _rewardAmount,\r\n            startTime: _startTime,\r\n            duration: _duration,\r\n            periodFinish: _startTime.add(_duration),\r\n            rewardRate: _rewardRate,\r\n            lastUpdateTime: _startTime,\r\n            rewardPerTokenStored: 0,\r\n            totalAmount: 0\r\n        }));\r\n        poolIndex[keccak256(abi.encode(_lpToken, _rewardToken))] = poolInfo.length - 1;\r\n    }\r\n\r\n    function stake(uint _amount, bytes32 _hash) external updateReward( msg.sender, _hash) {\r\n        require(_amount > 0, \"Cannot stake 0\");\r\n        uint index = poolIndex[_hash];\r\n        poolInfo[index].deposits[ msg.sender] = poolInfo[index].deposits[ msg.sender].add(_amount);\r\n        poolInfo[index].totalAmount = poolInfo[index].totalAmount.add(_amount);\r\n    }\r\n\r\n\r\n    function exit(bytes32 _hash) external {\r\n        uint index = poolIndex[_hash];\r\n        withdraw(_hash, poolInfo[index].deposits[ msg.sender]);\r\n        getReward( _hash);\r\n    }\r\n\r\n    // HTC\r\n    function getReward(bytes32 _hash) public updateReward( msg.sender, _hash) {\r\n        uint256 reward = earned( msg.sender, _hash);\r\n        uint index = poolIndex[_hash];\r\n        if (reward > 0) {\r\n            poolInfo[index].rewards[ msg.sender] = 0;\r\n            poolInfo[index].rewardToken.safeTransfer( msg.sender, reward);\r\n        }\r\n    }\r\n\r\n    function withdraw(bytes32 _hash, uint _amount) public updateReward( msg.sender, _hash) {\r\n        require(_amount > 0, \"Cannot stake 0\");\r\n        uint index = poolIndex[_hash];\r\n        poolInfo[index].deposits[ msg.sender] = poolInfo[index].deposits[ msg.sender].sub(_amount);\r\n        poolInfo[index].lpToken.safeTransfer( msg.sender, _amount);\r\n    }\r\n\r\n    function poolLength() public view returns(uint) {\r\n        return poolInfo.length;\r\n    }\r\n\r\n    modifier updateReward(address account, bytes32 _hash) {\r\n        uint index = poolIndex[_hash];\r\n        poolInfo[index].rewardPerTokenStored = rewardPerToken(_hash);\r\n        poolInfo[index].lastUpdateTime = lastTimeRewardApplicable(_hash);\r\n        if (account != address(0)) {\r\n            poolInfo[index].rewards[account] = earned(account, _hash);\r\n            poolInfo[index].userRewardPerTokenPaid[account] = poolInfo[index].rewardPerTokenStored;\r\n        }\r\n        _;\r\n    }\r\n\r\n    function lastTimeRewardApplicable(bytes32 _hash) public view returns (uint256) {\r\n        uint index = poolIndex[_hash];\r\n        return Math.min(block.timestamp, poolInfo[index].periodFinish);\r\n    }\r\n\r\n    function rewardPerToken(bytes32 _hash) public view returns (uint256) {\r\n        uint index = poolIndex[_hash];\r\n        if (poolInfo[index].totalAmount == 0) {\r\n            return poolInfo[index].rewardPerTokenStored;\r\n        }\r\n        // HT = HT + (( - ) *  / HT)\r\n        return\r\n            poolInfo[index].rewardPerTokenStored.add(\r\n                lastTimeRewardApplicable(_hash)\r\n                    .sub(poolInfo[index].lastUpdateTime)\r\n                    .mul(poolInfo[index].rewardRate)\r\n                    .mul(1e18)\r\n                    .div(poolInfo[index].totalAmount)\r\n            );\r\n    }\r\n\r\n    function earned(address account, bytes32 _hash) public view returns (uint256) {\r\n        uint index = poolIndex[_hash];\r\n        //  = HT * (HT - ) + \r\n        return\r\n            poolInfo[index].deposits[account]\r\n                .mul(rewardPerToken(_hash).sub(poolInfo[index].userRewardPerTokenPaid[account]))\r\n                .div(1e18)\r\n                .add(poolInfo[index].rewards[account]);\r\n    }\r\n\r\n}",
  "sourcePath": "D:/mzdata/DeFiPlus/contracts/mine/allocation/FirstAllocation.sol",
  "compiler": {
    "name": "solc",
    "version": "0.6.12+commit.27d51765.Emscripten.clang"
  },
  "schemaVersion": "3.3.3",
  "updatedAt": "2021-03-04T09:49:48.120Z",
  "devdoc": {
    "kind": "dev",
    "methods": {},
    "version": 1
  },
  "userdoc": {
    "kind": "user",
    "methods": {},
    "version": 1
  }
}