{
  "contractName": "MasterChef",
  "abi": [
    {
      "inputs": [],
      "stateMutability": "nonpayable",
      "type": "constructor"
    },
    {
      "inputs": [
        {
          "internalType": "bytes32",
          "name": "",
          "type": "bytes32"
        }
      ],
      "name": "allocations",
      "outputs": [
        {
          "internalType": "address",
          "name": "",
          "type": "address"
        }
      ],
      "stateMutability": "view",
      "type": "function"
    },
    {
      "inputs": [],
      "name": "governance",
      "outputs": [
        {
          "internalType": "address",
          "name": "",
          "type": "address"
        }
      ],
      "stateMutability": "view",
      "type": "function"
    },
    {
      "inputs": [
        {
          "internalType": "address",
          "name": "_lpToken",
          "type": "address"
        },
        {
          "internalType": "address",
          "name": "_rewardToken",
          "type": "address"
        }
      ],
      "name": "getAllocation",
      "outputs": [
        {
          "internalType": "address",
          "name": "",
          "type": "address"
        }
      ],
      "stateMutability": "view",
      "type": "function"
    }
  ],
  "bytecode": "0x608060405234801561001057600080fd5b50336000806101000a81548173ffffffffffffffffffffffffffffffffffffffff021916908373ffffffffffffffffffffffffffffffffffffffff16021790555061028a806100606000396000f3fe608060405234801561001057600080fd5b50600436106100415760003560e01c80635aa6e67514610046578063a6d945cc1461007a578063cd4a548814610108575b600080fd5b61004e610160565b604051808273ffffffffffffffffffffffffffffffffffffffff16815260200191505060405180910390f35b6100dc6004803603604081101561009057600080fd5b81019080803573ffffffffffffffffffffffffffffffffffffffff169060200190929190803573ffffffffffffffffffffffffffffffffffffffff169060200190929190505050610184565b604051808273ffffffffffffffffffffffffffffffffffffffff16815260200191505060405180910390f35b6101346004803603602081101561011e57600080fd5b8101908080359060200190929190505050610221565b604051808273ffffffffffffffffffffffffffffffffffffffff16815260200191505060405180910390f35b60008054906101000a900473ffffffffffffffffffffffffffffffffffffffff1681565b6000808383604051602001808373ffffffffffffffffffffffffffffffffffffffff1681526020018273ffffffffffffffffffffffffffffffffffffffff168152602001925050506040516020818303038152906040528051906020012090506001600082815260200190815260200160002060009054906101000a900473ffffffffffffffffffffffffffffffffffffffff1691505092915050565b60016020528060005260406000206000915054906101000a900473ffffffffffffffffffffffffffffffffffffffff168156fea2646970667358221220029bf86ce45852cc1e042ebc0fd7b425f18f7ab83a6179948af3b1babb00926164736f6c634300060c0033",
  "immutableReferences": {},
  "source": "// SPDX-License-Identifier: MIT\r\npragma solidity ^0.6.0;\r\n\r\nimport \"../interface/IERC20.sol\";\r\nimport \"../libraries/Math.sol\";\r\nimport \"../libraries/SafeMath.sol\";\r\nimport \"../libraries/Address.sol\";\r\nimport \"../libraries/SafeERC20.sol\";\r\n\r\ninterface IAllocation {\r\n    function add(IERC20 _lpToken, IERC20 _rewardToken, uint _rewardAmount, uint _startTime, uint _duration) external;\r\n\r\n    function stake(address _account, uint _amount, bytes32 _hash) external;\r\n\r\n    function getReward(address _account, bytes32 _hash) external;\r\n\r\n    function withdraw(address _account, bytes32 _hash, uint _amount) external;\r\n\r\n    function exit(address _account, bytes32 _hash) external;\r\n}\r\n\r\ncontract MasterChef {\r\n    using SafeMath for uint256;\r\n    using SafeERC20 for IERC20;\r\n\r\n    // 治理地址\r\n    address public governance;\r\n\r\n    mapping(bytes32 => address) public allocations;\r\n\r\n    constructor() public {\r\n        governance = msg.sender;\r\n    }\r\n\r\n    function getAllocation(address _lpToken, address _rewardToken) public view returns(address) {\r\n        bytes32 _hash = keccak256(abi.encode(_lpToken, _rewardToken));\r\n        return allocations[_hash];\r\n    }\r\n\r\n    function setAllocation(address _lpToken, address _rewardToken, address _allocation) internal {\r\n        bytes32 _hash = keccak256(abi.encode(_lpToken, _rewardToken));\r\n        allocations[_hash] = _allocation;\r\n    }\r\n}\r\n",
  "sourcePath": "E:/truffle/defiplus/contracts/mine/MasterChef.sol",
  "compiler": {
    "name": "solc",
    "version": "0.6.12+commit.27d51765.Emscripten.clang"
  },
  "schemaVersion": "3.3.4",
  "updatedAt": "2021-03-06T07:47:03.351Z",
  "devdoc": {
    "kind": "dev",
    "methods": {},
    "version": 1
  },
  "userdoc": {
    "kind": "user",
    "methods": {},
    "version": 1
  }
}