{
  "contractName": "SecondAllocation",
  "abi": [
    {
      "inputs": [
        {
          "internalType": "contract IMasterChef",
          "name": "_masterChef",
          "type": "address"
        }
      ],
      "stateMutability": "nonpayable",
      "type": "constructor"
    },
    {
      "inputs": [
        {
          "internalType": "bytes32",
          "name": "",
          "type": "bytes32"
        }
      ],
      "name": "poolIndex",
      "outputs": [
        {
          "internalType": "uint256",
          "name": "",
          "type": "uint256"
        }
      ],
      "stateMutability": "view",
      "type": "function"
    },
    {
      "inputs": [
        {
          "internalType": "uint256",
          "name": "",
          "type": "uint256"
        }
      ],
      "name": "poolInfo",
      "outputs": [
        {
          "internalType": "contract IERC20",
          "name": "lpToken",
          "type": "address"
        },
        {
          "internalType": "contract IERC20",
          "name": "rewardToken",
          "type": "address"
        },
        {
          "internalType": "uint256",
          "name": "rewardAmount",
          "type": "uint256"
        },
        {
          "internalType": "uint256",
          "name": "startTime",
          "type": "uint256"
        },
        {
          "internalType": "uint256",
          "name": "rewardRate",
          "type": "uint256"
        },
        {
          "internalType": "uint256",
          "name": "totalAmount",
          "type": "uint256"
        }
      ],
      "stateMutability": "view",
      "type": "function"
    },
    {
      "inputs": [
        {
          "internalType": "contract IERC20",
          "name": "_lpToken",
          "type": "address"
        },
        {
          "internalType": "contract IERC20",
          "name": "_rewardToken",
          "type": "address"
        },
        {
          "internalType": "uint256",
          "name": "_rewardAmount",
          "type": "uint256"
        },
        {
          "internalType": "uint256",
          "name": "_startTime",
          "type": "uint256"
        },
        {
          "internalType": "uint256",
          "name": "_rewardRate",
          "type": "uint256"
        }
      ],
      "name": "add",
      "outputs": [],
      "stateMutability": "nonpayable",
      "type": "function"
    },
    {
      "inputs": [
        {
          "internalType": "uint256",
          "name": "_amount",
          "type": "uint256"
        },
        {
          "internalType": "bytes32",
          "name": "_hash",
          "type": "bytes32"
        }
      ],
      "name": "stake",
      "outputs": [],
      "stateMutability": "nonpayable",
      "type": "function"
    },
    {
      "inputs": [
        {
          "internalType": "bytes32",
          "name": "_hash",
          "type": "bytes32"
        }
      ],
      "name": "exit",
      "outputs": [],
      "stateMutability": "nonpayable",
      "type": "function"
    },
    {
      "inputs": [
        {
          "internalType": "bytes32",
          "name": "_hash",
          "type": "bytes32"
        }
      ],
      "name": "getReward",
      "outputs": [],
      "stateMutability": "nonpayable",
      "type": "function"
    },
    {
      "inputs": [
        {
          "internalType": "bytes32",
          "name": "_hash",
          "type": "bytes32"
        },
        {
          "internalType": "uint256",
          "name": "_amount",
          "type": "uint256"
        }
      ],
      "name": "withdraw",
      "outputs": [],
      "stateMutability": "nonpayable",
      "type": "function"
    },
    {
      "inputs": [],
      "name": "poolLength",
      "outputs": [
        {
          "internalType": "uint256",
          "name": "",
          "type": "uint256"
        }
      ],
      "stateMutability": "view",
      "type": "function"
    },
    {
      "inputs": [
        {
          "internalType": "address",
          "name": "account",
          "type": "address"
        },
        {
          "internalType": "bytes32",
          "name": "_hash",
          "type": "bytes32"
        }
      ],
      "name": "earned",
      "outputs": [
        {
          "internalType": "uint256",
          "name": "",
          "type": "uint256"
        }
      ],
      "stateMutability": "view",
      "type": "function"
    }
  ],
  "bytecode": "0x608060405234801561001057600080fd5b506040516118873803806118878339818101604052602081101561003357600080fd5b8101908080519060200190929190505050806000806101000a81548173ffffffffffffffffffffffffffffffffffffffff021916908373ffffffffffffffffffffffffffffffffffffffff160217905550506117f3806100946000396000f3fe608060405234801561001057600080fd5b50600436106100935760003560e01c806363fed9a41161006657806363fed9a4146101ad57806383c592cf146101db57806384a0840014610213578063cbcf027014610255578063ef295401146102d757610093565b8063040cf02014610098578063081e3eda146100d05780630ca36263146100ee5780631526fe271461011c575b600080fd5b6100ce600480360360408110156100ae57600080fd5b810190808035906020019092919080359060200190929190505050610339565b005b6100d861061d565b6040518082815260200191505060405180910390f35b61011a6004803603602081101561010457600080fd5b810190808035906020019092919050505061062a565b005b6101486004803603602081101561013257600080fd5b81019080803590602001909291905050506106b4565b604051808773ffffffffffffffffffffffffffffffffffffffff1681526020018673ffffffffffffffffffffffffffffffffffffffff168152602001858152602001848152602001838152602001828152602001965050505050505060405180910390f35b6101d9600480360360208110156101c357600080fd5b810190808035906020019092919050505061073d565b005b610211600480360360408110156101f157600080fd5b810190808035906020019092919080359060200190929190505050610957565b005b61023f6004803603602081101561022957600080fd5b8101908080359060200190929190505050610c25565b6040518082815260200191505060405180910390f35b6102d5600480360360a081101561026b57600080fd5b81019080803573ffffffffffffffffffffffffffffffffffffffff169060200190929190803573ffffffffffffffffffffffffffffffffffffffff169060200190929190803590602001909291908035906020019092919080359060200190929190505050610c3d565b005b610323600480360360408110156102ed57600080fd5b81019080803573ffffffffffffffffffffffffffffffffffffffff16906020019092919080359060200190929190505050610e9d565b6040518082815260200191505060405180910390f35b3382600060026000838152602001908152602001600020549050600073ffffffffffffffffffffffffffffffffffffffff168373ffffffffffffffffffffffffffffffffffffffff1614610451576103918383610e9d565b6001828154811061039e57fe5b906000526020600020906009020160070160008573ffffffffffffffffffffffffffffffffffffffff1673ffffffffffffffffffffffffffffffffffffffff1681526020019081526020016000208190555042600182815481106103fe57fe5b906000526020600020906009020160060160008573ffffffffffffffffffffffffffffffffffffffff1673ffffffffffffffffffffffffffffffffffffffff168152602001908152602001600020819055505b600084116104c7576040517f08c379a000000000000000000000000000000000000000000000000000000000815260040180806020018281038252600e8152602001807f43616e6e6f74207374616b65203000000000000000000000000000000000000081525060200191505060405180910390fd5b60006002600087815260200190815260200160002054905061054d85600183815481106104f057fe5b906000526020600020906009020160080160003373ffffffffffffffffffffffffffffffffffffffff1673ffffffffffffffffffffffffffffffffffffffff1681526020019081526020016000205461105190919063ffffffff16565b6001828154811061055a57fe5b906000526020600020906009020160080160003373ffffffffffffffffffffffffffffffffffffffff1673ffffffffffffffffffffffffffffffffffffffff168152602001908152602001600020819055506106153386600184815481106105be57fe5b906000526020600020906009020160000160009054906101000a900473ffffffffffffffffffffffffffffffffffffffff1673ffffffffffffffffffffffffffffffffffffffff1661109b9092919063ffffffff16565b505050505050565b6000600180549050905090565b6000600260008381526020019081526020016000205490506106a7826001838154811061065357fe5b906000526020600020906009020160080160003373ffffffffffffffffffffffffffffffffffffffff1673ffffffffffffffffffffffffffffffffffffffff16815260200190815260200160002054610339565b6106b08261073d565b5050565b600181815481106106c157fe5b90600052602060002090600902016000915090508060000160009054906101000a900473ffffffffffffffffffffffffffffffffffffffff16908060010160009054906101000a900473ffffffffffffffffffffffffffffffffffffffff16908060020154908060030154908060040154908060050154905086565b3381600060026000838152602001908152602001600020549050600073ffffffffffffffffffffffffffffffffffffffff168373ffffffffffffffffffffffffffffffffffffffff1614610855576107958383610e9d565b600182815481106107a257fe5b906000526020600020906009020160070160008573ffffffffffffffffffffffffffffffffffffffff1673ffffffffffffffffffffffffffffffffffffffff16815260200190815260200160002081905550426001828154811061080257fe5b906000526020600020906009020160060160008573ffffffffffffffffffffffffffffffffffffffff1673ffffffffffffffffffffffffffffffffffffffff168152602001908152602001600020819055505b60006108613386610e9d565b9050600060026000878152602001908152602001600020549050600082111561094f5760006001828154811061089357fe5b906000526020600020906009020160070160003373ffffffffffffffffffffffffffffffffffffffff1673ffffffffffffffffffffffffffffffffffffffff1681526020019081526020016000208190555061094e3383600184815481106108f757fe5b906000526020600020906009020160010160009054906101000a900473ffffffffffffffffffffffffffffffffffffffff1673ffffffffffffffffffffffffffffffffffffffff1661109b9092919063ffffffff16565b5b505050505050565b3381600060026000838152602001908152602001600020549050600073ffffffffffffffffffffffffffffffffffffffff168373ffffffffffffffffffffffffffffffffffffffff1614610a6f576109af8383610e9d565b600182815481106109bc57fe5b906000526020600020906009020160070160008573ffffffffffffffffffffffffffffffffffffffff1673ffffffffffffffffffffffffffffffffffffffff168152602001908152602001600020819055504260018281548110610a1c57fe5b906000526020600020906009020160060160008573ffffffffffffffffffffffffffffffffffffffff1673ffffffffffffffffffffffffffffffffffffffff168152602001908152602001600020819055505b60008511610ae5576040517f08c379a000000000000000000000000000000000000000000000000000000000815260040180806020018281038252600e8152602001807f43616e6e6f74207374616b65203000000000000000000000000000000000000081525060200191505060405180910390fd5b600060026000868152602001908152602001600020549050610b6b8660018381548110610b0e57fe5b906000526020600020906009020160080160003373ffffffffffffffffffffffffffffffffffffffff1673ffffffffffffffffffffffffffffffffffffffff1681526020019081526020016000205461113d90919063ffffffff16565b60018281548110610b7857fe5b906000526020600020906009020160080160003373ffffffffffffffffffffffffffffffffffffffff1673ffffffffffffffffffffffffffffffffffffffff16815260200190815260200160002081905550610bfb8660018381548110610bdb57fe5b90600052602060002090600902016005015461113d90919063ffffffff16565b60018281548110610c0857fe5b906000526020600020906009020160050181905550505050505050565b60026020528060005260406000206000915090505481565b81421115610cb3576040517f08c379a00000000000000000000000000000000000000000000000000000000081526004018080602001828103825260128152602001807f696e76616c69642073746172742074696d65000000000000000000000000000081525060200191505060405180910390fd5b610ce03330858773ffffffffffffffffffffffffffffffffffffffff166111c5909392919063ffffffff16565b60016040518060c001604052808773ffffffffffffffffffffffffffffffffffffffff1681526020018673ffffffffffffffffffffffffffffffffffffffff1681526020018581526020018481526020018381526020016000815250908060018154018082558091505060019003906000526020600020906009020160009091909190915060008201518160000160006101000a81548173ffffffffffffffffffffffffffffffffffffffff021916908373ffffffffffffffffffffffffffffffffffffffff16021790555060208201518160010160006101000a81548173ffffffffffffffffffffffffffffffffffffffff021916908373ffffffffffffffffffffffffffffffffffffffff16021790555060408201518160020155606082015181600301556080820151816004015560a0820151816005015550506001808054905003600260008787604051602001808373ffffffffffffffffffffffffffffffffffffffff1681526020018273ffffffffffffffffffffffffffffffffffffffff16815260200192505050604051602081830303815290604052805190602001208152602001908152602001600020819055505050505050565b6000806002600084815260200190815260200160002054905061104860018281548110610ec657fe5b906000526020600020906009020160070160008673ffffffffffffffffffffffffffffffffffffffff1673ffffffffffffffffffffffffffffffffffffffff1681526020019081526020016000205461103a670de0b6b3a764000061102c60018681548110610f3157fe5b90600052602060002090600902016004015461101e610fb460018981548110610f5657fe5b906000526020600020906009020160060160008d73ffffffffffffffffffffffffffffffffffffffff1673ffffffffffffffffffffffffffffffffffffffff168152602001908152602001600020544261105190919063ffffffff16565b60018981548110610fc157fe5b906000526020600020906009020160080160008d73ffffffffffffffffffffffffffffffffffffffff1673ffffffffffffffffffffffffffffffffffffffff1681526020019081526020016000205461128690919063ffffffff16565b61128690919063ffffffff16565b61130c90919063ffffffff16565b61113d90919063ffffffff16565b91505092915050565b600061109383836040518060400160405280601e81526020017f536166654d6174683a207375627472616374696f6e206f766572666c6f770000815250611356565b905092915050565b6111388363a9059cbb60e01b8484604051602401808373ffffffffffffffffffffffffffffffffffffffff16815260200182815260200192505050604051602081830303815290604052907bffffffffffffffffffffffffffffffffffffffffffffffffffffffff19166020820180517bffffffffffffffffffffffffffffffffffffffffffffffffffffffff8381831617835250505050611416565b505050565b6000808284019050838110156111bb576040517f08c379a000000000000000000000000000000000000000000000000000000000815260040180806020018281038252601b8152602001807f536166654d6174683a206164646974696f6e206f766572666c6f77000000000081525060200191505060405180910390fd5b8091505092915050565b611280846323b872dd60e01b858585604051602401808473ffffffffffffffffffffffffffffffffffffffff1681526020018373ffffffffffffffffffffffffffffffffffffffff1681526020018281526020019350505050604051602081830303815290604052907bffffffffffffffffffffffffffffffffffffffffffffffffffffffff19166020820180517bffffffffffffffffffffffffffffffffffffffffffffffffffffffff8381831617835250505050611416565b50505050565b6000808314156112995760009050611306565b60008284029050828482816112aa57fe5b0414611301576040517f08c379a00000000000000000000000000000000000000000000000000000000081526004018080602001828103825260218152602001806117736021913960400191505060405180910390fd5b809150505b92915050565b600061134e83836040518060400160405280601a81526020017f536166654d6174683a206469766973696f6e206279207a65726f000000000000815250611661565b905092915050565b6000838311158290611403576040517f08c379a00000000000000000000000000000000000000000000000000000000081526004018080602001828103825283818151815260200191508051906020019080838360005b838110156113c85780820151818401526020810190506113ad565b50505050905090810190601f1680156113f55780820380516001836020036101000a031916815260200191505b509250505060405180910390fd5b5060008385039050809150509392505050565b6114358273ffffffffffffffffffffffffffffffffffffffff16611727565b6114a7576040517f08c379a000000000000000000000000000000000000000000000000000000000815260040180806020018281038252601f8152602001807f5361666545524332303a2063616c6c20746f206e6f6e2d636f6e74726163740081525060200191505060405180910390fd5b600060608373ffffffffffffffffffffffffffffffffffffffff16836040518082805190602001908083835b602083106114f657805182526020820191506020810190506020830392506114d3565b6001836020036101000a0380198251168184511680821785525050505050509050019150506000604051808303816000865af19150503d8060008114611558576040519150601f19603f3d011682016040523d82523d6000602084013e61155d565b606091505b5091509150816115d5576040517f08c379a00000000000000000000000000000000000000000000000000000000081526004018080602001828103825260208152602001807f5361666545524332303a206c6f772d6c6576656c2063616c6c206661696c656481525060200191505060405180910390fd5b60008151111561165b578080602001905160208110156115f457600080fd5b810190808051906020019092919050505061165a576040517f08c379a000000000000000000000000000000000000000000000000000000000815260040180806020018281038252602a815260200180611794602a913960400191505060405180910390fd5b5b50505050565b6000808311829061170d576040517f08c379a00000000000000000000000000000000000000000000000000000000081526004018080602001828103825283818151815260200191508051906020019080838360005b838110156116d25780820151818401526020810190506116b7565b50505050905090810190601f1680156116ff5780820380516001836020036101000a031916815260200191505b509250505060405180910390fd5b50600083858161171957fe5b049050809150509392505050565b60008060007fc5d2460186f7233c927e7db2dcc703c0e500b653ca82273b7bfad8045d85a47060001b9050833f91506000801b82141580156117695750808214155b9250505091905056fe536166654d6174683a206d756c7469706c69636174696f6e206f766572666c6f775361666545524332303a204552433230206f7065726174696f6e20646964206e6f742073756363656564a2646970667358221220b1066511eaf5ab7a104de030f8132e0cd445fd0fe799271c30b33e0294a29fdd64736f6c634300060c0033",
  "immutableReferences": {},
  "source": "// SPDX-License-Identifier: MIT\r\npragma solidity ^0.6.12;\r\n\r\nimport \"../../interface/IERC20.sol\";\r\nimport \"../../libraries/Math.sol\";\r\nimport \"../../libraries/SafeMath.sol\";\r\nimport \"../../libraries/Address.sol\";\r\nimport \"../../libraries/SafeERC20.sol\";\r\nimport \"../interface/IMasterChef.sol\";\r\n\r\n\r\ncontract SecondAllocation {\r\n    using SafeMath for uint256;\r\n    using SafeERC20 for IERC20;\r\n\r\n    IMasterChef masterChef;\r\n\r\n    struct PoolInfo {\r\n        // lp地址\r\n        IERC20 lpToken;\r\n\r\n        // 奖励token\r\n        IERC20 rewardToken;\r\n\r\n        // 奖励数量\r\n        uint rewardAmount;\r\n\r\n        // 开始时间\r\n        uint startTime;\r\n\r\n        // 每秒获得的奖励\r\n        uint rewardRate;\r\n\r\n        // 质押总量\r\n        uint totalAmount;\r\n\r\n        // 每个质押token给用户的奖励\r\n        mapping(address => uint256) lastUpdateTime;\r\n\r\n        // 用户奖励\r\n        mapping(address => uint256) rewards;\r\n\r\n        // 入金映射\r\n        mapping(address => uint256) deposits;\r\n    }\r\n\r\n    PoolInfo[] public poolInfo;\r\n\r\n    // 池子索引\r\n    mapping(bytes32 => uint) public poolIndex;\r\n\r\n    constructor(IMasterChef _masterChef) public {\r\n        masterChef = _masterChef;\r\n    }\r\n\r\n    function add(\r\n        IERC20 _lpToken,\r\n        IERC20 _rewardToken,\r\n        uint _rewardAmount,\r\n        uint _startTime,\r\n        uint _rewardRate\r\n    ) external {\r\n        require(block.timestamp <= _startTime, \"invalid start time\");\r\n        _rewardToken.safeTransferFrom(msg.sender, address(this), _rewardAmount);\r\n        poolInfo.push(PoolInfo({\r\n            lpToken: _lpToken,\r\n            rewardToken: _rewardToken,\r\n            rewardAmount: _rewardAmount,\r\n            startTime: _startTime,\r\n            rewardRate: _rewardRate,\r\n            totalAmount: 0\r\n        }));\r\n        poolIndex[keccak256(abi.encode(_lpToken, _rewardToken))] = poolInfo.length - 1;\r\n    }\r\n\r\n    function stake(uint _amount, bytes32 _hash) external updateReward(msg.sender, _hash) {\r\n        require(_amount > 0, \"Cannot stake 0\");\r\n        uint index = poolIndex[_hash];\r\n        poolInfo[index].deposits[msg.sender] = poolInfo[index].deposits[msg.sender].add(_amount);\r\n        poolInfo[index].totalAmount = poolInfo[index].totalAmount.add(_amount);\r\n    }\r\n\r\n\r\n    function exit(bytes32 _hash) external {\r\n        uint index = poolIndex[_hash];\r\n        withdraw(_hash, poolInfo[index].deposits[msg.sender]);\r\n        getReward(_hash);\r\n    }\r\n\r\n    // 结算HTC奖励 \r\n    function getReward(bytes32 _hash) public updateReward(msg.sender, _hash) {\r\n        uint256 reward = earned(msg.sender, _hash);\r\n        uint index = poolIndex[_hash];\r\n        if (reward > 0) {\r\n            poolInfo[index].rewards[msg.sender] = 0;\r\n            poolInfo[index].rewardToken.safeTransfer(msg.sender, reward);\r\n        }\r\n    }\r\n\r\n    function withdraw(bytes32 _hash, uint _amount) public updateReward(msg.sender, _hash) {\r\n        require(_amount > 0, \"Cannot stake 0\");\r\n        uint index = poolIndex[_hash];\r\n        poolInfo[index].deposits[msg.sender] = poolInfo[index].deposits[msg.sender].sub(_amount);\r\n        poolInfo[index].lpToken.safeTransfer(msg.sender, _amount);\r\n    }\r\n\r\n    function poolLength() public view returns(uint) {\r\n        return poolInfo.length;\r\n    }\r\n\r\n    modifier updateReward(address account, bytes32 _hash) {\r\n        uint index = poolIndex[_hash];\r\n        if (account != address(0)) {\r\n            poolInfo[index].rewards[account] = earned(account, _hash);\r\n            poolInfo[index].lastUpdateTime[account] = block.timestamp;\r\n        }\r\n        _;\r\n    }\r\n\r\n    function earned(address account, bytes32 _hash) public view returns (uint256) {\r\n        uint index = poolIndex[_hash];\r\n        return poolInfo[index].deposits[account]\r\n            .mul(block.timestamp.sub(poolInfo[index].lastUpdateTime[account]))\r\n            .mul(poolInfo[index].rewardRate)\r\n            .div(1e18)\r\n            .add(poolInfo[index].rewards[account]);\r\n    }\r\n\r\n}",
  "sourcePath": "D:/mzdata/DeFiPlus/contracts/mine/allocation/SecondAllocation.sol",
  "compiler": {
    "name": "solc",
    "version": "0.6.12+commit.27d51765.Emscripten.clang"
  },
  "schemaVersion": "3.3.3",
  "updatedAt": "2021-03-04T09:49:48.145Z",
  "devdoc": {
    "kind": "dev",
    "methods": {},
    "version": 1
  },
  "userdoc": {
    "kind": "user",
    "methods": {},
    "version": 1
  }
}